S01300004553575F50726F6A6563742E73726563EC
S113000046C2000065C2000063C2000061C2000075
S11300105FC200005DC200005BC2000059C2000064
S113002057C2000055C2000053C2000051C2000074
S1130030A2C500004DC200004BC2000049C200002E
S113004047C2000045C2000043C2000041C2000094
S11300503FC200003DC200003BC2000039C20000A4
S113006037C200000C943F110C94911131C200006E
S11300702FC200002DC200002BC2000029C20000C4
S113008027C2000025C2000023C2000021C20000D4
S11300900C94D5110C9427121BC200000C94BF14AD
S11300A017C2000015C2000013C2000011C20000F4
S11300B00FC200000DC200000BC2000009C2000004
S11300C007C2000005C2000003C200000C946B12BA
S11300D00C94BD12FDC100000C9401130C94531335
S11300E0F7C10000BE01BE01BE01F8010002160204
S11300F0BE01BE01F8010002E1145115511551155C
S11301005115511551155115E1145115511551152C
S11301105115511551155115E3145115511551151A
S1130120511551155115511551155115511551159B
S11301305115511551155115E314511551155115FA
S1130140511551155115511551155115511551157B
S113015051155115511551154D155115511551156F
S11301605115511551155115181551155115511594
S1130170511551155115511551155115511551154B
S113018051155115511551150C1551155115511580
S1130190511551155115511530150CE212E10F2E60
S11301A0FCE5EF2EF2E1FF2EF02D80912B12882337
S11301B011F10FB6F8940F92D8011796ED91FC91B6
S11301C01897C085D185CE0102963DD380911F1228
S11301D0815080931F1280912B12815080932B1297
S11301E00F900FBE8B8D9C8D8CD2CE018AD28091C4
S11301F02B128111DECFF7018081823008F0F8D311
S11302000E94190FD2CFCF93DF93CDB7DEB760979B
S11302100FB6F894DEBF0FBECDBFCE0101969A870C
S11302208987812C912CA12CB12C69847A84E0914A
S11302309412F09195128081882309F40EC10780ED
S1130240F085E02D20803180428053800E94620A34
S1130250CE0101960E94830E6B877C878D879E87D3
S11302608981811164C08B859C85AD85BE8582158D
S11302709305A405B50508F444C00E94480BE09119
S11302809412F09195120780F085E02DA085B18538
S1130290B88BAF87CD010296D6D2EF85F8898789CE
S11302A082FF21C04685578560897189420D531D9F
S11302B0641D751D720161010B851C852D853E85AC
S11302C0CF010E94970D882399F0C82CD92CEA2CD1
S11302D0FB2C00E010E0A201910160E08F85988979
S11302E00E94280E05C08E7FAF85B88957968C93DF
S11302F0AF85B8895496ED91FC915597CD01199528
S11303009EC020E0B201A1018B859C85AD85BE8590
S1130310481B590B6A0B7B0B8091901290919112A0
S1130320D1D60E94480B81118AC062D388C00E9432
S1130330480B85C0898188230CF481C04E805F807E
S1130340D2011C968D919C911D97892B19F0C201A5
S1130350029679D2CE0108960E94830E8B019C01ED
S1130360E9810E2E000CFF0BEA30F10508F067C09E
S11303708827EE58FF4F8F4F0C94A417F2018789FA
S11303808160878BCA80DB80EC80FD804685578541
S1130390608971894C0D5D1D6E1D7F1DC2010E9417
S11303A0970D882309F44BC0D2015496ED91FC912A
S11303B05597C2011995F201878982FF40C04A818D
S11303C05B816C817D8186859785A089B1899A013D
S11303D0AB01280F391F4A1F5B1FC82CD92CEA2CEC
S11303E0FB2C00E010E060E0C2010E94280E27C050
S11303F0D20157968C9157978E7F57968C931FC036
S1130400F20187898160878B4A815B816C817D8160
S113041046875787608B718B400F511F621F731F74
S113042068017901C2010E94970D09C0F201878910
S113043081FD03C0C20165D102C08E7F878B282D48
S1130440392D4A2D5B2D662D772D80919012909138
S11304509112A3D581116ECFEACE0E94620ACE0119
S113046001960E94830E6B877C878D879E87898186
S113047081115DCFE0919212F0919312808121E07D
S1130480811120E0282C392C4A2C5B2C3BCF1124E1
S11304901FBECFEFD1E2DEBFCDBF00E00CBF12E044
S11304A0A0E0B2E0EAE5F2E300E00BBF02C007908F
S11304B00D92A236B107D9F722E1A2E6B2E001C05B
S11304C01D92AD3DB207E1F70E94CE0F0C942B199B
S11304D097CDE7E0F1E080818F6080830895E8E0C4
S11304E0F1E09081907F908390818F70982B90831E
S11304F00895E8E0F1E08081807F80830895CF93C0
S1130500DF93DC01EAE6F2E001C0F90120813181E8
S11305102A173B07D0F382819381AF01480F591FFB
S1130520A417B50749F412964D915C911397840F63
S1130530951F93838283DF0112968D919C9113976B
S1130540ED01C80FD91F2C173D07D9F4209168027B
S113055030916902C217D30781F02A813B81820F4F
S1130560931F13969C938E931297C081D181888197
S1130570998111969C938E9307C01196DC93CE9328
S113058003C011963C932E93AE17BF0711F0B183AD
S1130590A083DF91CF910895CF92DF92EF92FF92E3
S11305A00F931F93CF93DF93EC018CD78091680254
S11305B090916902892B41F5EAE6F2E0AEE6B2E0F9
S11305C0B183A08313821282EAE0F2E1F09369021C
S11305D0E093680213821282118210828CE99FE0F8
S11305E013969C938E931297ED93FC9390936502CC
S11305F080936402909367028093660280E090E89F
S11306009093630280936202E0906202F09063022E
S1130610C7018C239D23892B09F065C0209709F419
S113062064C0AE014C5F5F4F09F45DC00091660287
S1130630109167020417150708F455C0C0916A02A7
S1130640D0916B02EAE6F2E002C0FE01E9012A81E0
S11306503B812417350728F4288139812115310578
S1130660A1F78091680290916902C817D907D9F15E
S1130670C080D18084E0C80ED11C88819981918387
S113068080832A813B81241B350B2930310548F0B6
S1130690CE01840F951FFC01338322835B834A833D
S11306A02EDF8A819B81081B190B1093670200932C
S11306B0660220916402309165020217130720F448
S11306C01093650200936402E82AF92AFB82EA8205
S11306D019821882DDD7C114D10449F40E941A0F7B
S11306E0C12CD12C04C0D4D7F9CFD2D7F7CFC601AF
S11306F0DF91CF911F910F91FF90EF90DF90CF90FA
S11307000895CF93DF93009741F1FC013497228140
S113071033814091620250916302B90164237523CD
S1130720672BD9F060817181672BB9F4EF01409593
S113073050952423352333832283C4D62091660223
S1130740309167028A819B81820F931F9093670285
S113075080936602CE01D3DE9BD7DF91CF910895BB
S1130760FC010396928381834FEF5FEFBA014383C9
S113077054836583768390878783928781871082E9
S11307800895FC01138612860895CF93DF939C018C
S1130790FB01DC011196CD91DC911297D583C483C2
S11307A08E819F81978386838E819F81DC0115963C
S11307B07C936E9314977F836E8333872287F9012A
S11307C080818F5F8083DF91CF9108950F931F9372
S11307D0CF93DF93EB01088119812A813B810F3F7D
S11307E04FEF14072407340721F4FC01A185B285D7
S11307F011C0DC01139601C0DF011496ED91FC9148
S1130800159740815181628173810417150726076A
S1130810370790F71496ED91FC911597FD83EC83BF
S1130820D783C683BF83AE831596DC93CE93149788
S11308309B878A87FC0120812F5F2083DF91CF91E2
S11308401F910F910895CF93DF93FC01A285B38587
S1130850C481D581868197819F838E83C681D78108
S1130860848195819D838C8311968D919C9112979F
S1130870E817F90731F48681978112969C938E9339
S11308801197138612868C9181508C938C91DF91F1
S1130890CF91089531E1FC013083319722E2208326
S11308A03197A3E3A08331976083319770833197A5
S11308B0108231971082319760E8608331971082FB
S11308C03197108231971082319762E060833197BB
S11308D063E06083319764E06083319765E060830F
S11308E0319766E06083319767E06083319768E011
S11308F06083319769E06083319760E16083319769
S11309003083319732E13083319733E1308331974B
S113091034E13083319735E13083319736E13083E8
S1130920319737E13083319738E13083319739E1BA
S11309303083319730E23083319731E2308331971D
S11309402083319723E2208331974083319750836A
S1130950319726E22083319727E22083319728E2DA
S11309602083319729E22083319720E32083319734
S113097021E3208389970895A89590EC88E10FB628
S1130980F894A895809360000FBE90936000A091A6
S11309908812B0918912CD91CDBFDD91DEBFFF9158
S11309A0EF91DF91CF91BF91AF919F918F917F9103
S11309B06F915F914F913F912F911F910F91FF90F4
S11309C0EF90DF90CF90BF90AF909F908F907F90EB
S11309D06F905F904F903F902F901F900F900CBEA0
S11309E00F900BBE0F900FBE0F90089581E00895F5
S11309F00F920FB6F8940F920BB60F920CB60F929B
S1130A001F9211242F923F924F925F926F927F9286
S1130A108F929F92AF92BF92CF92DF92EF92FF920A
S1130A200F931F932F933F934F935F936F937F93F2
S1130A308F939F93AF93BF93CF93DF93EF93FF93E2
S1130A40A0918812B09189120DB60D920EB60D9236
S1130A50BED6A0918812B0918912CD91CDBFDD91FF
S1130A60DEBFFF91EF91DF91CF91BF91AF919F9145
S1130A708F917F916F915F914F913F912F911F9132
S1130A800F91FF90EF90DF90CF90BF90AF909F9029
S1130A908F907F906F905F904F903F902F901F901A
S1130AA00F900CBE0F900BBE0F900FBE0F900895C9
S1130AB00F920FB6F8940F920BB60F920CB60F92DA
S1130AC01F9211242F923F924F925F926F927F92C6
S1130AD08F929F92AF92BF92CF92DF92EF92FF924A
S1130AE00F931F932F933F934F935F936F937F9332
S1130AF08F939F93AF93BF93CF93DF93EF93FF9322
S1130B00A0918812B09189120DB60D920EB60D9275
S1130B1013BEECD481115BD6A0918812B0918912D6
S1130B20CD91CDBFDD91DEBFFF91EF91DF91CF91EC
S1130B30BF91AF919F918F917F916F915F914F91F1
S1130B403F912F911F910F91FF90EF90DF90CF90E5
S1130B50BF90AF909F908F907F906F905F904F90D9
S1130B603F902F901F900F900CBE0F900BBE0F90D4
S1130B700FBE0F9008959CDF18950FB6F8940F924E
S1130B80FC01968D0F900FBE81E0911180E00895D5
S1130B900F931F93CF93DF93EC01042F1E8D48A175
S1130BA041110BC088819981892B09F041C08C8146
S1130BB09D817DD71D821C8242C0011117C050E067
S1130BC08A819B810E94EB1828A18A819B81820FD4
S1130BD0911D9B838A832C813D818217930750F159
S1130BE0888199819B838A8380E029C050E08E812B
S1130BF09F810E94EB1888A190E0919581959109BD
S1130C002E813F81280F391F3F832E8348815981CC
S1130C102417350730F42C813D81820F931F9F8365
S1130C208E83023049F4112349F0115080E007C04B
S1130C3080E005C080E003C080E001C080E01F5F69
S1130C401E8FDF91CF911F910F910895FC0140A158
S1130C504423A9F050E026813781240F351F3783C0
S1130C602683848195812817390720F0808191811A
S1130C7097838683CB01668177810C94EB18089562
S1130C80EF92FF920F931F93CF938C010FB6F894BA
S1130C900F92FC01C2A11C169CF48389811106C029
S1130CA00FC0F8018389811105C00AC07801F3E1FE
S1130CB0EF0EF11CC70141D68111E7D6C15089F767
S1130CC08FEFF80182A30F900FBE0FB6F8940F9226
S1130CD0C1A11C169CF48085811106C00FC0F801C7
S1130CE08085811105C00AC07801F8E0EF0EF11C7F
S1130CF0C70123D68111C9D6C15089F78FEFF801F6
S1130D0081A30F900FBECF911F910F91FF90EF9091
S1130D100895CF93DF93EC010FB6F8940F92E88116
S1130D20F9818F8D28A190E030E0829FA001839FFC
S1130D30500D929F500D11244E0F5F1F5D834C8305
S1130D401E8EFB83EA830197829FA001839F500D2F
S1130D50929F500D1124CF01840F951F9F838E8382
S1130D608FEF89A38AA361110AC08885882369F05B
S1130D70CE010896E2D5882341F03ADE06C0CE01C2
S1130D800896EEDCCE014396EBDC0F900FBE81E0BB
S1130D90DF91CF910895FF920F931F93CF93DF9329
S1130DA0082F162FF42E6623B9F0869FC001112454
S1130DB08596F2DBEC01009741F414C00F8F18A361
S1130DC061E0CE01A6DFFCA20DC0859699838883DD
S1130DD0F5CFD983C883F2CF85E290E0DDDBEC0167
S1130DE0892BB9F7CE01DF91CF911F910F91FF901D
S1130DF008959F92AF92BF92CF92DF92EF92FF92AB
S1130E000F931F93CF93DF93CDB7DEB729970FB618
S1130E10F894DEBF0FBECDBF7C015B012E833F8300
S1130E204887598710E0992493946C0188E0C80E90
S1130E30D11C0FB6F8940F92F701968D878D9817F1
S1130E4010F00230A9F4402FB501C701A1DEF7016B
S1130E509389992339F0C70143966FD5882321F0EC
S1130E60C7DD02C08111C4DD0F900FBE81E04BC00D
S1130E708E819F81A885B985892B8A2B8B2B21F4A0
S1130E800F900FBE80E03FC0111104C0CE01019647
S1130E9096D5192D0F900FBE15D30FB6F8940F9257
S1130EA0F70181A18F3F09F411A2F70182A18F3FBD
S1130EB009F412A20F900FBEBE016A5F7F4FCE01EC
S1130EC001968ED581111BC00FB6F8940F92F701CD
S1130ED0968D878D0F900FBE98130DC04E815F8144
S1130EE068857985C601F2D4C701CADED1D38111E0
S1130EF0A0CF7EDD9ECFC701C3DECAD39ACFC70180
S1130F00BFDEC6D380E029960FB6F894DEBF0FBECD
S1130F10CDBFDF91CF911F910F91FF90EF90DF90A4
S1130F20CF90BF90AF909F900895EF92FF920F9350
S1130F301F93CF93DF938A01FC01568D378D53178E
S1130F4010F02230E1F4422F7801EC011AA120DEE6
S1130F501F3F79F48B898823A1F0CE014396EDD409
S1130F60882389F0E114F10481F081E0F7018083A2
S1130F700DC0FF24F394F10EFAA281E007C080E0D3
S1130F8005C081E003C081E001C081E0DF91CF9121
S1130F901F910F91FF90EF9008959F92AF92BF928F
S1130FA0CF92DF92EF92FF920F931F93CF93DF9331
S1130FB0CDB7DEB729970FB6F894DEBF0FBECDBF0D
S1130FC08C015B012E833F8348875987E12C992448
S1130FD093946C0183E1C80ED11C0FB6F8940F9260
S1130FE0F801F68CFF2091F0B501C8012FDEFA94C8
S1130FF0F801F68E8085882329F0C80108969DD4CF
S11310008111F6DC0F900FBE81E04AC08E819F8172
S1131010A885B985892B8A2B8B2B21F40F900FBEC1
S113102080E03EC0E11004C0CE010196C8D4E92C92
S11310300F900FBE47D20FB6F8940F92F80181A11A
S11310408F3F09F411A2F80182A18F3F09F412A283
S11310500F900FBEBE016A5F7F4FCE010196C0D4D0
S1131060811115C0C80189DD882369F04E815F8133
S113107068857985C6012AD4C80102DE09D38111A5
S1131080ACCFB6DCAACFC801FBDD02D3A6CFC80122
S1131090F7DDFED2C80171DD882309F49ECF80E01C
S11310A029960FB6F894DEBF0FBECDBFDF91CF9166
S11310B01F910F91FF90EF90DF90CF90BF90AF9072
S11310C09F900895CF93DF93EC010FB6F8940F929D
S11310D089A18F3F09F419A28AA18F3F09F41AA2AA
S11310E00F900FBE8E8D811103C0CE01439605D49F
S11310F0CE01C6DDDF91CF910895E0914412F091C5
S11311004512808181110CC08FEF9FEFDC01809329
S1131110111290931212A0931312B0931412089503
S1131120E0914412F09145120780F085E02D00848F
S1131130F185E02D82819381A481B5818093111280
S113114090931212A0931312B093141208958F92D5
S11311509F92AF92BF92CF92DF92EF92FF92CF9382
S11311606B017C01C42F80901B1290901C12A090E4
S11311701D12B0901E1280918812909189120296CD
S113118062DB8FEFC816D806E806F80661F4CC23B4
S113119051F060918812709189126E5F7F4F80E2E6
S11311A092E1F3DA3DC0C80CD91CEA1CFB1CE091A7
S11311B08812F0918912C282D382E482F582C81423
S11311C0D904EA04FB0460F46091881270918912D6
S11311D080914212909143126E5F7F4FF7DA20C0E4
S11311E060918812709189128091441290914512F5
S11311F06E5F7F4FEBDA8091111290911212A091E1
S11312001312B0911412C816D906EA06FB0640F46C
S1131210C0921112D0921212E0921312F092141290
S1131220CF91FF90EF90DF90CF90BF90AF909F90C1
S11312308F9008954F925F926F927F928F929F92B8
S1131240AF92BF92CF92DF92EF92FF920F93CF9320
S1131250DF934C016B015A012901CA019DD93C015C
S1131260892B09F4E4C080E390E096D9EC01892B42
S113127099F07C8E6B8EA50165EA70E0C3010E9433
S1131280F41821E0A21AB1088B8D9C8DA80EB91E0A
S1131290C114D10421F41FC0C30133DAC8C0D6017C
S11312A08C918D8F8C918823A1F0AE01425E5F4FAB
S11312B0F6013196B8E0CB0ED11CCF012191DA01B1
S11312C02D93AD01DC018C91882319F0EC15FD05FB
S11312D0A1F71CA201C01D8E043008F003E00A8FA0
S11312E00FA318A66E01B2E0CB0ED11CC60149DAD9
S11312F0CE010E9646DADB87CA8784E090E0A0E050
S1131300B0E0801B9109A109B1098E879F87A88B42
S1131310B98BDF8BCE8B1AA619A61BA61CA61DA6FD
S11313201EA61FA6A201B401C501B4DA998388835D
S1131330E114F10419F0F701D183C0830FB6F894D6
S11313400F9280911F128F5F80931F1280918812D9
S113135090918912892B89F5D0938912C0938812B0
S113136080911F12813009F038C08CE592E1F8D9E0
S113137087E692E1F5D982E792E1F2D98DE792E12D
S1131380EFD981E592E1ECD986E492E1E9D987E3EA
S113139092E1E6D98CE292E1E3D980E292E1E0D9EC
S11313A081E592E1909345128093441286E492E1A0
S11313B0909343128093421210C0809119128111AC
S11313C00CC0E0918812F0918912928D8A8D891750
S11313D020F0D0938912C0938812809115128F5FE8
S11313E0809315128DA38A8D90911A12981710F478
S11313F080931A12FBE08F9FC0011124B601845A16
S11314009D4EC3D90F900FBE80911912882359F0B5
S1131410E0918812F0918912928D8A8D981728F4A0
S1131420E7DA81E005C081E003C081E001C08FEF0D
S1131430DF91CF910F91FF90EF90DF90CF90BF900D
S1131440AF909F908F907F906F905F904F90089592
S1131450EF92FF920F930F2EFFE0EF2EF2E1FF2E9B
S1131460F02D00E020E030E040EC50E061E272E07A
S11314708DEC90E0DFDE813009F5CAD38130F1F4E0
S1131480F8948FEF9FEFDC01809311129093121266
S1131490A0931312B093141281E080931912109246
S11314A01B1210921C1210921D1210921E12E09127
S11314B08812F091891281A512D85EDA0F91FF90FB
S11314C0EF90089580910E128F5F80930E1208950D
S11314D00FB6F8940F9260911B1270911C128091B8
S11314E01D1290911E120F900FBE08959F92AF92FD
S11314F0BF92CF92DF92EF92FF920F931F93CF93FD
S1131500DF9380910E128111AAC0C0901B12D0905B
S11315101C12E0901D12F0901E128FEFC81AD80A08
S1131520E80AF80AC0921B12D0921C12E0921D1213
S1131530F0921E12C114D104E104F104B1F48091BB
S113154044129091451220914212309143123093EB
S11315504512209344129093431280934212809137
S113156016128F5F80931612C8DD8091111290912C
S11315701212A0911312B0911412C816D906EA06D9
S1131580FB0610F4B12C5AC0B12C0F2EFBE0AF2E89
S1131590F02D99249394E0914412F09145128081A6
S11315A081110CC08FEF9FEFDC0180931112909397
S11315B01212A0931312B093141240C0E09144127B
S11315C0F09145120780F085E02DC085D1858A8190
S11315D09B81AC81BD81C816D906EA06FB0648F496
S11315E08093111290931212A0931312B0931412B9
S11315F025C08E010E5F1F4FC80125D9888D998D96
S1131600892B19F0CE010E961ED98A8D90911A124B
S1131610981710F480931A12A89EC0011124B801DF
S1131620845A9D4EB2D8E0918812F09189129A8D15
S1131630828D981708F4AFCFB92CADCFE091881202
S1131640F0918912E28D8BE0E89FF0011124E45AB5
S1131650FD4E8081823048F0BB24B39406C0809153
S113166018128F5F80931812B12C8091171288235F
S113167011F0BB24B3948B2DDF91CF911F910F9167
S1131680FF90EF90DF90CF90BF90AF909F90089520
S1131690CF92DF92EF92FF920F931F93CF93DF933A
S11316A00FB6F8940F9280910E12815080930E120F
S11316B080910E12811156C080911F12811129C090
S11316C054C0D7011796ED91FC911897C085D18528
S11316D0CE010E96B8D88E010E5F1F4FC801B3D845
S11316E08A8D90911A12981710F480931A12D89E2A
S11316F0C0011124B801845A9D4E47D8E091881244
S1131700F09189129A8D828D981788F0C0921712E1
S11317100EC0C0E0D0E00F2EF7E3EF2EF2E1FF2E73
S1131720F02D0F2EFBE0DF2EF02DCC24C394F70117
S113173080818111C6CFCD2B09F0DFDCC091181256
S1131740CC2349F0D1E0D2DE8111D0931712C150DD
S1131750D1F71092181280911712882329F048D9D2
S113176081E003C080E001C080E00F900FBEDF91F4
S1131770CF911F910F91FF90EF90DF90CF9008953C
S1131780CF92DF92EF92FF926B017C01672B682B63
S1131790692B41F097DE40E0C701B601D8DC78DF61
S11317A0811101C025D9FF90EF90DF90CF9008956B
S11317B0009721F480918812909189120FB6F894C1
S11317C00F92FC0172A761A70F900FBE089580913C
S11317D00E12882321F081E080931712089510924D
S11317E01712E0918812F091891281A50E94790262
S11317F0A0918812B0918912E0918812F091891217
S11318002D913C91838D948D8217930758F06091AC
S11318108812709189128091881290918912635E66
S11318207F4F15D380911A12282F30E09BE0899FB7
S1131830F0011124E45AFD4E908191110EC04BE049
S11318408150282F30E0429FF001439FF00D112476
S1131850E45AFD4E9081992399F39BE0929FA00155
S1131860939F500D1124DA01A45ABD4E1196ED91A7
S1131870FC9112970480F581E02D1296FC93EE936F
S11318801197415A5D4EE417F50729F444815581B7
S1131890FD01528341839BE0929FF001939FF00DE1
S11318A01124E45AFD4E0180F281E02D208531851A
S11318B0309389122093881280931A12E09188122F
S11318C0F091891281A50C946F020895CF92DF9252
S11318D0EF92FF926A017B016091881270918912E4
S11318E0625F7F4F0E94E60341E0C701B6012FDC2F
S11318F0FF90EF90DF90CF900895CF92DF92EF9218
S1131900FF92CF936A017B01C22F6091881270917C
S11319108912625F7F4F0E94C503CC2321F0CC243F
S1131920CA94DC2C76014C2FC701B60110DCCF9190
S1131930FF90EF90DF90CF9008950F931F93CF9374
S1131940DF93DC011796ED91FC911897C085D18542
S11319508E01025F1F4FC8010E94230480910E1262
S1131960811116C00C501109C8010E9423048A8DEC
S113197090911A12981710F480931A12BBE08B9F5F
S1131980C0011124B801845A9D4E0E94C50305C0AC
S1131990B80187E392E10E94C503E0918812F091B7
S11319A089129A8D828D891720F481E08093171211
S11319B001C080E0DF91CF911F910F910895209194
S11319C01612FC01208340911B1250911C1260914D
S11319D01D1270911E124183528363837483089590
S11319E0CF92DF92EF92FF920F931F93CF93DF93E7
S11319F0FB010FB6F8940F9240911B1250911C12E8
S1131A0060911D1270911E12008111812281338117
S1131A100F3FAFEF1A072A073A0749F1EC01C980D3
S1131A20DA80EB80FC80A0911612B881BA1729F0F5
S1131A304C155D056E057F05E0F44C195D096E09D2
S1131A407F09401751076207730758F4041B150BED
S1131A50260B370B0083118322833383B0DF80E0AE
S1131A6009C0108211821282138281E003C080E0D7
S1131A7001C081E00F900FBEDF91CF911F910F91B4
S1131A80FF90EF90DF90CF90089581E0809317123C
S1131A90089580911912882331F080910E128823C1
S1131AA021F080E0089581E0089582E008950F9385
S1131AB01F93CF93DF93FC01892B79F180A581508B
S1131AC080A7228D97A1291751F181112AC0EF0116
S1131AD08F010E5F1F4FC8010E9423048FA18A8FBC
S1131AE044E050E060E070E0481B5109610971096D
S1131AF04E875F87688B798B90911A12981710F430
S1131B0080931A122BE0829FC0011124B801845AD9
S1131B109D4E0E94C50381E005C080E003C080E0C3
S1131B2001C080E0DF91CF911F910F910895CF9272
S1131B30DF92EF92FF920F931F93FC014283538332
S1131B4064837583938782870417150726073707ED
S1131B50C0F00C191D092E093F0986859785A089B7
S1131B60B189081719072A073B0700F5BF016E5F03
S1131B707F4F80919212909193120E94E60380E02D
S1131B8018C00C151D052E053F0528F44C155D05E0
S1131B906E057F0568F4BF016E5F7F4F80919412DC
S1131BA0909195120E94E60380E003C081E001C099
S1131BB081E01F910F91FF90EF90DF90CF900895F7
S1131BC00FB6F8940F928091901290919112892BF4
S1131BD0E1F481EA92E10E94B00386E992E10E9475
S1131BE0B00381EA92E1909395128093941286E96E
S1131BF092E1909393128093921240E067E08AE01E
S1131C00CAD890939112809390120F900FBE0895AA
S1131C10EF92FF920F93D4DF8091901290919112E2
S1131C20892B89F00F2EFEE8EF2EF2E1FF2EF02D26
S1131C3003E020E030E045E550E066E272E083E056
S1131C4091E0F8DA01C080E00F91FF90EF900895E1
S1131C508F929F92AF92BF92CF92DF92EF92FF92B8
S1131C600F931F93CF93DF93CDB7DEB727970FB6AC
S1131C70F894DEBF0FBECDBFE0919012F0919112A7
S1131C80309769F169832A833B834C835D839F8307
S1131C908E836630E4F4FDDE823061F400E0A70157
S1131CA09601BE016F5F7F4F8091901290919112C7
S1131CB0A0D816C000E020E030E0A901BE016F5FAB
S1131CC07F4F809190129091911293D809C020E097
S1131CD0A801BE016F5F7F4FCF0127D901C080E00B
S1131CE027960FB6F894DEBF0FBECDBFDF91CF911C
S1131CF01F910F91FF90EF90DF90CF90BF90AF9026
S1131D009F908F9008952F923F924F925F926F927F
S1131D107F928F929F92AF92BF92CF92DF92EF9277
S1131D20FF920F931F93CF93DF931C01D1DB2B0101
S1131D303C0180918A1290918B12A0918C12B091E7
S1131D408D12481659066A067B0608F053C03BC03C
S1131D500780F085E02D80809180A280B380C085CB
S1131D60D1858E010E5F1F4FC8010E942304EC89A8
S1131D70FD89CE0119958F8982FF25C08E859F85A7
S1131D80A889B989880D991DAA1DBB1D88169906B5
S1131D90AA06BB0670F48A839B83AC83BD83DB876E
S1131DA0CA87B80180919412909195120E94E6031B
S1131DB00AC0C12CD12C760100E010E0A5019401E9
S1131DC060E0CE0145DFE0919412F091951280819C
S1131DD08111BECF8091921290919312909395129B
S1131DE080939412F0939312E093921281E0F101A4
S1131DF0808302C0F101108240928A1250928B12A9
S1131E0060928C1270928D12C301B201DF91CF9156
S1131E101F910F91FF90EF90DF90CF90BF90AF9004
S1131E209F908F907F906F905F904F903F902F90F6
S1131E3008950895279A2F9A2FEF80E792E0215072
S1131E4080409040E1F700C000001F9AF5CF279A28
S1131E502F9A2FEF87EA91E6215080409040E1F7D6
S1131E6000C000001F9AF5CF61E070E088E090E0C8
S1131E700C94AC170895C8D0DEC00895CF93DF93B7
S1131E80EC01EDD00ED1688379838A839B83F7D0EC
S1131E906C837D838E839F83DF91CF910895FC01B2
S1131EA064817581868197810895FC0160817181C7
S1131EB082819381089561E070E080E090E078DCB5
S1131EC0C0E48EE292E00E94FB1882B18C2782B9B2
S1131ED064E873E080E090E053DCF3CF62E070E00C
S1131EE080E090E065DCC0E284E392E00E94FB18AD
S1131EF08091D1129091D212C1DF8091D112909130
S1131F00D212D3DF6093AC127093AD128093AE12F1
S1131F109093AF128091D1129091D212C0DF60934E
S1131F20B0127093B1128093B2129093B31282B133
S1131F308C2782B968EE73E080E090E021DCD4CF96
S1131F40EF92FF920F93E12CF12C02E020E030E0BD
S1131F5040EC50E06EE272E08BE59FE06BD901E06B
S1131F6020E030E040EC50E06AE472E08EE69FE06E
S1131F7061D90F91FF90EF90089581B1806681B986
S1131F8073DF9093D2128093D11275DF8093D012B5
S1131F900E94690280E0E9D3D3CF0895EEDF80E5A3
S1131FA092E00E94FB1854DA80E090E008956530D6
S1131FB0F1F4FA0180818F7390E0982F88272181B2
S1131FC0822B90930902809308028281F0E48F9F10
S1131FD0C0011124FA01238126952695822B909322
S1131FE007028093060281E08093B412089564305E
S1131FF051F080E090E4909307028093060290935E
S113200009028093080208950F931F9307ED1FE0C0
S113201020E034E244EF50E060E087E2E0D39093C4
S1132020B6128093B51221E0892B09F020E0822FAB
S11320301F910F9108958091B5129091B612009757
S113204051F040E060E070E01BD4843031F4109231
S1132050B41280E0089582E0089583E008958091A9
S1132060B5129091B612009731F064E055D48530E2
S113207021F083E0089582E0089580E0089560915E
S113208008027091090280E090E04BD620E030E035
S113209048EC52E4D4D620E038EF4FE756E4ADC51F
S11320A00895609106027091070280E090E039D6AD
S11320B020E030E045E253E4C2D620E038EF4FE7B9
S11320C056E49BD520E030E040E252E431C5089567
S11320D02F923F924F925F926F927F928F929F9234
S11320E0AF92CF92EF92FF920F931F93CF93DF9310
S11320F0CDB7DEB7F82E2A013B0188E090E046D741
S11321008C018F2D90E0880F991FFC01E954FD4E3E
S113211011830083FC01E65FFD4F80819181D8012A
S11321208D939C936C2D70E084E090E015D71C0196
S113213061E070E086E090E00FD77C014C2DB101A6
S1132140DBD4F801F582E4826A2D70E084E090E04B
S113215003D71C0161E070E086E090E0FDD67C01CD
S11321604A2DB101C9D4D8011396FC92EE9212976C
S113217017969C928E921697FFB6F894ED91FC9167
S1132180119736978081826080838D909C90C301E3
S1132190B201C7D520E030E040E051E450D69B01C5
S11321A0AC0160E074E284E79BE427D520E030E0F2
S11321B040E85FE3BDD489D5F40132976083D80148
S11321C0ED91FC911197359788E98083ED91FC910D
S11321D0349786E08083FFBEC801DF91CF911F91C1
S11321E00F91FF90EF90CF90AF909F908F907F9042
S11321F06F905F904F903F902F900895CF93DF930F
S1132200EC01EA81FB81938182812581981B9223D1
S113221084819817A1F0938126952923A081B18107
S1132220A20FB11D6C939F5F258192239383E88154
S1132230F981359780818062808380E001C082E0EB
S1132240DF91CF910895DC011496ED91FC911597DF
S113225093818281981789F092818581869589235B
S1132260A081B181A80FB11D8C91DB018C939F5F7C
S113227085819823928380E0089583E008951F92D6
S11322800F920FB60F9211240BB60F922F933F9318
S11322904F935F936F937F938F939F93AF93BF936A
S11322A0CF93DF93EF93FF93A091B712B091B8123D
S11322B0109711F16091C6001496ED91FC91159759
S11322C0938182812581981B92238481981761F0E0
S11322D0838126952823C081D181C20FD11D6883B3
S11322E08F5F9581892383831696ED91FC911797CF
S11322F0309711F0CD011995FF91EF91DF91CF91B6
S1132300BF91AF919F918F917F916F915F914F9109
S11323103F912F910F900BBE0F900FBE0F901F9007
S113232018951F920F920FB60F9211240BB60F92AD
S11323302F938F939F93AF93BF93EF93FF93E0916A
S1132340B712F091B8123097B9F00280F381E02D02
S1132350938182819817B1F092818581282F2695E7
S11323602923A081B181A20FB11D2C919F5F8923E4
S113237082832093C6000BC0E1ECF0E080818F7D66
S1132380808305C0E1ECF0E080818F7D8083FF9144
S1132390EF91BF91AF919F918F912F910F900BBEB1
S11323A00F900FBE0F901F9018951F920F920FB6AB
S11323B00F9211240BB60F922F933F934F935F9379
S11323C06F937F938F939F93AF93BF93CF93DF9339
S11323D0EF93FF93A091B912B091BA12109711F133
S11323E06091CE001496ED91FC91159793818281B2
S11323F02581981B92238481981761F08381269507
S11324002823C081D181C20FD11D68838F5F95813C
S1132410892383831696ED91FC911797309711F0D9
S1132420CD011995FF91EF91DF91CF91BF91AF91BC
S11324309F918F917F916F915F914F913F912F91D8
S11324400F900BBE0F900FBE0F901F9018951F9208
S11324500F920FB60F9211240BB60F922F938F93F6
S11324609F93AF93BF93EF93FF93E091B912F091D1
S1132470BA123097B9F00280F381E02D9381828102
S11324809817B1F092818581282F26952923A08160
S1132490B181A20FB11D2C919F5F89238283209368
S11324A0CE000BC0E9ECF0E080818F7D808305C015
S11324B0E9ECF0E080818F7D8083FF91EF91BF9103
S11324C0AF919F918F912F910F900BBE0F900FBEE4
S11324D00F901F9018951F920F920FB60F92112410
S11324E00BB60F922F933F934F935F936F937F930A
S11324F08F939F93AF93BF93CF93DF93EF93FF9308
S1132500A091BB12B091BC12109711F16091D6004A
S11325101496ED91FC911597938182812581981BE6
S113252092238481981761F0838126952823C081A2
S1132530D181C20FD11D68838F5F958189238383E5
S11325401696ED91FC911797309711F0CD011995DE
S1132550FF91EF91DF91CF91BF91AF919F918F91B7
S11325607F916F915F914F913F912F910F900BBE8F
S11325700F900FBE0F901F9018951F920F920FB6D9
S11325800F9211240BB60F922F938F939F93AF93B7
S1132590BF93EF93FF93E091BB12F091BC1230977D
S11325A0B9F00280F381E02D938182819817B1F014
S11325B092818581282F26952923A081B181A20F9C
S11325C0B11D2C919F5F892382832093D6000BC079
S11325D0E1EDF0E080818F7D808305C0E1EDF0E0E6
S11325E080818F7D8083FF91EF91BF91AF919F9107
S11325F08F912F910F900BBE0F900FBE0F901F90D5
S113260018951F920F920FB60F9211240BB60F92CA
S11326102F933F934F935F936F937F938F939F93E6
S1132620AF93BF93CF93DF93EF93FF93A091BD122A
S1132630B091BE12109711F1609136011496ED918C
S1132640FC911597938182812581981B9223848123
S1132650981761F0838126952823C081D181C20F08
S1132660D11D68838F5F9581892383831696ED91AD
S1132670FC911797309711F0CD011995FF91EF91C7
S1132680DF91CF91BF91AF919F918F917F916F9186
S11326905F914F913F912F910F900BBE0F900FBE02
S11326A00F901F9018951F920F920FB60F9211243E
S11326B00BB60F922F938F939F93AF93BF93EF9388
S11326C0FF93E091BD12F091BE123097B9F00280F1
S11326D0F381E02D938182819817B1F092818581F5
S11326E0282F26952923A081B181A20FB11D2C91F9
S11326F09F5F89238283209336010BC0E1E3F1E0DD
S113270080818F7D808305C0E1E3F1E080818F7D4E
S11327108083FF91EF91BF91AF919F918F912F9102
S11327200F900BBE0F900FBE0F901F901895CF9374
S1132730DF931F92CDB7DEB7BE016F5F7F4F8091ED
S1132740BF129091C0127FDD8111F6CF898190E094
S11327500F90DF91CF910895682F8091BF129091CF
S1132760C0124CDD80E090E008958F929F92AF926A
S1132770CF92EF920F93812C912C6894AA24A7F8FE
S11327806894CC24C7F8E12C00E023E040E051EE4B
S113279060E070E09DDC9093C0128093BF12E7ED7F
S11327A0F2E182E192E091838083938382830F91AB
S11327B0EF90CF90AF909F908F9008958091CF121B
S11327C081110CC08CE08093B8008FEF8093BB0024
S11327D084E08093BC0081E08093CF120895AF928F
S11327E0BF92CF92DF92EF92FF920F931F93CF93FA
S11327F0DF93A82EB62E69017A0184E090E0C6D357
S1132800EC01892B61F1A88281E0B81212C0C701E2
S1132810B60120EA36E841E050E074D3DA01C90198
S11328204097A109B109B695A7959795879589838E
S113283011C0C701B60120E83AE146E050E062D396
S1132840DA01C9014097A109B109B695A7959795F1
S1132850879589831B830A838C2F9D2F02C080E078
S113286090E0DF91CF911F910F91FF90EF90DF9057
S1132870CF90BF90AF9008958091BC00817008956F
S1132880FF920F931F93CF93DF930097D1F14A30B8
S1132890D0F5F42E8B01EC01EFDF811136C080916D
S11328A0C2129091C312C817D90741F087DF8981FA
S11328B08093B800D093C312C093C21281E08F0DED
S11328C08093C4128881880F8093C512FF2089F0F9
S11328D0F801A6ECB2E14FEF4F0D642F70E0CB018D
S11328E00196B801680F791F81918D93E617F70758
S11328F0D9F788EF8093200285EA8093BC0084E0B6
S113290005C086E003C087E001C082E0DF91CF917B
S11329101F910F91FF9008951F93CF93DF9300971A
S113292029F16B3028F5162FEC01A6DF811122C0A6
S11329308091C2129091C312C817D90741F03EDFAB
S113294089818093B800D093C312C093C2121093AC
S1132950C4128881880F81608093C51288EF8093A8
S1132960200285EA8093BC0085E005C086E003C0B0
S113297087E001C082E0DF91CF911F9108951F92FB
S11329800F920FB60F9211240BB60F922F933F9311
S11329904F935F936F937F938F939F93AF93BF9363
S11329A0EF93FF93E091B9008E2F90E0FC013897EC
S11329B0E135F10508F075C08827E458FF4F8F4FC3
S11329C0C3C21092C112E091C1128091C412E817DF
S11329D070F481E08E0F8093C112F0E0EB53FD4E52
S11329E080818093BB0085E88093BC0072C084E939
S11329F08093BC008091C2129091C312DC011296A4
S1132A00ED91FC911397309709F463C020E040E006
S1132A1050E064E019955DC0E091C11281E08E0F31
S1132A208093C1128091BB00F0E0EB53FD4E808394
S1132A308091B900803411F41092C1122091C11216
S1132A4030E08091C41290E001972817390724F4EC
S1132A5085EC8093BC003DC085E88093BC0039C000
S1132A608091BB00E091C112F0E0EB53FD4E8083F6
S1132A7084E98093BC008091C2129091C312DC015E
S1132A801296ED91FC911397309719F12091C4128D
S1132A9045EC52E165E019951CC085EA8093BC00C1
S1132AA018C08091B9008093200284E08093BC0018
S1132AB08091C2129091C312DC011296ED91FC91A7
S1132AC01397309731F020E040E050E0609120020D
S1132AD01995FF91EF91BF91AF919F918F917F9144
S1132AE06F915F914F913F912F910F900BBE0F907B
S1132AF00FBE0F901F901895FC01411101C067D3C0
S1132B00842F90E09C012150310982239323892B47
S1132B1009F05DD3413808F05AD3128213824483FA
S1132B20440F415045837183608380E090E00895B1
S1132B305058BB27AA270ED048C139D130F03ED116
S1132B4020F031F49F3F11F41EF42EC10EF4E095F1
S1132B50E7FB24C1E92F4AD180F3BA176207730750
S1132B608407950718F071F49EF562C10EF4E095A0
S1132B700B2EBA2FA02D0B01B90190010C01CA0133
S1132B80A0011124FF27591B99F0593F50F4503EDE
S1132B9068F11A16F040A22F232F342F4427585FD0
S1132BA0F3CF469537952795A795F0405395C9F7E8
S1132BB07EF41F16BA0B620B730B840BBAF09150A0
S1132BC0A1F0FF0FBB1F661F771F881FC2F70EC03F
S1132BD0BA0F621F731F841F48F487957795679512
S1132BE0B795F7959E3F08F0B3CF9395880F08F0FB
S1132BF09927EE0F9795879508950CD0E6C0DED0FF
S1132C0040F0D5D030F021F45F3F19F0C7C0511126
S1132C1010C1CAC0EBD098F39923C9F35523B1F37B
S1132C20951B550BBB27AA2762177307840738F037
S1132C309F5F5F4F220F331F441FAA1FA9F333D096
S1132C400E2E3AF0E0E830D091505040E695001C4A
S1132C50CAF729D0FE2F27D0660F771F881FBB1F06
S1132C60261737074807AB07B0E809F0BB0B802DE0
S1132C70BF01FF2793585F4F2AF09E3F510568F02C
S1132C808DC0D7C05F3FECF3983EDCF38695779513
S1132C906795B795F7959F5FC9F7880F911D96952E
S1132CA0879597F90895E1E0660F771F881FBB1F8A
S1132CB0621773078407BA0720F0621B730B840B37
S1132CC0BA0BEE1F88F7E095089598D088F09F57C7
S1132CD090F0B92F9927B751A0F0D1F0660F771F64
S1132CE0881F991F1AF0BA95C9F712C0B13081F044
S1132CF09FD0B1E008959CC0672F782F8827B85FD4
S1132D0039F0B93FCCF3869577956795B395D9F7A4
S1132D103EF490958095709561957F4F8F4F9F4FAE
S1132D200895E89409C097FB3EF4909580957095BA
S1132D3061957F4F8F4F9F4F9923A9F0F92F96E903
S1132D40BB279395F695879577956795B795F11178
S1132D50F8CFFAF4BB0F11F460FF1BC06F5F7F4F15
S1132D608F4F9F4F16C0882311F096E911C0772327
S1132D7021F09EE8872F762F05C0662371F096E830
S1132D80862F70E060E02AF09A95660F771F881FFF
S1132D90DAF7880F9695879597F9089597F99F67BD
S1132DA080E870E060E008959FEF80EC08950024CF
S1132DB00A941616170618060906089500240A949C
S1132DC012161306140605060895092E0394000C22
S1132DD011F4882352F0BB0F40F4BF2B11F460FFB1
S1132DE004C06F5F7F4F8F4F9F4F089557FD9058DA
S1132DF0440F551F59F05F3F71F04795880F97FBBB
S1132E00991F61F09F3F79F0879508951216130674
S1132E101406551FF2CF4695F1DF08C016161706A3
S1132E201806991FF1CF86957105610508940895D8
S1132E30E894BB2766277727CB0197F908950BD031
S1132E40C4CFB5DF28F0BADF18F0952309F0A6CF78
S1132E50ABCF1124EECFCADFA0F3959FD1F3950F2A
S1132E6050E0551F629FF001729FBB27F00DB11D0A
S1132E70639FAA27F00DB11DAA1F649F6627B00D9A
S1132E80A11D661F829F2227B00DA11D621F739F83
S1132E90B00DA11D621F839FA00D611D221F749F91
S1132EA03327A00D611D231F849F600D211D822FD8
S1132EB0762F6A2F11249F5750408AF0E1F088231F
S1132EC04AF0EE0FFF1FBB1F661F771F881F91502C
S1132ED05040A9F79E3F510570F060CFAACF5F3FE5
S1132EE0ECF3983EDCF3869577956795B795F7955F
S1132EF0E7959F5FC1F7FE2B880F911D96958795E7
S1132F0097F90895A1E21A2EAA1BBB1BFD010DC05F
S1132F10AA1FBB1FEE1FFF1FA217B307E407F50785
S1132F2020F0A21BB30BE40BF50B661F771F881F61
S1132F30991F1A9469F760957095809590959B01F7
S1132F40AC01BD01CF010895EE0FFF1F881F8BBF99
S1132F500790F691E02D19940F931F93CF93DF936D
S1132F60869F8001879F100D969F100D1124C80124
S1132F700DD0EC01009721F0A80160E070E034D19D
S1132F80CE01DF91CF911F910F9108950F931F935D
S1132F90CF93DF938230910510F482E090E0E091CA
S1132FA0D512F091D61220E030E0A0E0B0E03097E6
S1132FB019F1408151810281138148175907C8F0E2
S1132FC08417950769F4109731F012960C931297B1
S1132FD013961C9327C00093D5121093D61222C0C7
S1132FE02115310519F04217530718F49A01BD0150
S1132FF0EF01DF01F801DBCF21153105F9F0281BC2
S1133000390B2430310580F48A819B816115710567
S113301021F0FB019383828304C09093D6128093A2
S1133020D512FE01329644C0FE01E20FF31F8193D4
S1133030919322503109398328833AC02091D312C5
S11330403091D412232B41F42091020230910302D7
S11330503093D4122093D3122091000230910102B4
S11330602115310541F42DB73EB74091040250912A
S11330700502241B350BE091D312F091D412E21710
S1133080F307A0F42E1B3F0B2817390778F0AC0187
S11330904E5F5F4F2417350748F04E0F5F1F509364
S11330A0D4124093D3128193919302C0E0E0F0E0F4
S11330B0CF01DF91CF911F910F910895CF93DF93AB
S11330C0009709F481C0FC01329713821282A09107
S11330D0D512B091D612109781F420813181820FDC
S11330E0931F2091D3123091D4122817390751F528
S11330F0F093D412E093D31267C0ED0120E030E0E6
S1133100CE17DF0740F44A815B819E0141155105CA
S1133110F1F0EA01F5CFD383C28340815181840F5A
S1133120951FC817D90759F488819981840F951F71
S11331300296918380838A819B8193838283211564
S1133140310529F4F093D612E093D5123DC0E9017C
S1133150FB83EA8349915991C40FD51FEC17FD07EE
S113316061F480819181840F951F0296E90199830E
S11331708883828193819B838A83E0E0F0E01296C6
S11331808D919C911397009719F0FD01DC01F7CF05
S11331908D919C9111979D012E5F3F4F820F931F3C
S11331A02091D3123091D4122817390769F430973B
S11331B029F41092D6121092D51202C013821282F0
S11331C0B093D412A093D312DF91CF91089581E0EC
S11331D090E0F89440C0FB01DC0102C001900D9224
S11331E041505040D8F70895DC0101C06D9341501F
S11331F05040E0F708950F931F93CF93DF93E0912E
S1133200D912F091DA12238121FF1BC08C01D0E086
S1133210C0E0F80181918F016091D9127091DA12A6
S1133220DB011896ED91FC911997882331F01995DB
S1133230892B79F3DFEFCFEFECCF8AE01995892B57
S113324019F08FEF9FEF02C08D2F9C2FDF91CF914C
S10D32501F910F910895F894FFCF29
S113325A0000DD12200000400040C600CE00D60067
S113326A36010000000300000000AC1397130000AD
S113327AF849444C4500546D7220537663005461F6
S113328A736B31006D6561737572696E672074655D
S113329A6D7065726174757265005461736B320086
S11332AA50726F6772616D20537461727465642120
S10532BA2100ED
S9030000FC
