S00F0000496F542D5345502E73726563F4
S113000048C2000067C2000065C2000063C200006D
S113001061C200005FC200005DC200005BC200005C
S113002059C2000057C2000055C2000053C200006C
S11300300C94AA084FC200004DC200004BC200003D
S113004049C2000047C2000045C2000043C200008C
S113005041C200003FC200003DC200003BC200009C
S113006039C200000C9416230C94682333C2000098
S113007031C200002FC200002DC200002BC20000BC
S113008029C2000027C2000025C2000023C20000CC
S11300900C94AC230C94FE231DC200000C949626F1
S11300A019C2000017C2000015C2000013C20000EC
S11300B011C200000FC200000DC200000BC20000FC
S11300C009C2000007C2000005C200000C944224CB
S11300D00C949424FFC100000C94D8240C942A2579
S11300E0F9C10000BF01BF01BF01F90101021702FC
S11300F0BF01BF01F9010102B826282728272827B4
S11301002827282728272827B826282728272827E4
S11301102827282728272827BA26282728272827D2
S11301202827282728272827282728272827282753
S11301302827282728272827BA26282728272827B2
S11301402827282728272827282728272827282733
S11301502827282728272827242728272827282727
S11301602827282728272827EF262827282728274D
S11301702827282728272827282728272827282703
S11301802827282728272827E32628272827282739
S11301902827282728272827072701E018E10F2EDA
S11301A0F1E3EF2EF8E1FF2EF02D80910018882363
S11301B011F10FB6F8940F92D8011796ED91FC91B6
S11301C01897C085D185CE01029629D68091F4175F
S11301D081508093F4178091001881508093001807
S11301E00F900FBE8B8D9C8D76D5CE0174D58091EA
S11301F000188111DECFF7018081823008F0E4D647
S11302000E94A417D2CFCF93DF93CDB7DEB7609708
S11302100FB6F894DEBF0FBECDBFCE0101969A870C
S11302208987812C912CA12CB12C69847A84E0914A
S11302306918F0916A188081882309F410C1078035
S1130240F085E02D20803180428053800E94B610DA
S1130250CE0101960E940E176B877C878D879E873F
S11302608981811165C08B859C85AD85BE8582158C
S11302709305A405B50508F444C00E949F11E091BC
S11302806918F0916A180780F085E02DA085B18582
S1130290B88BAF87CD010296C2D5EF85F8898789DF
S11302A082FF21C04685578560897189420D531D9F
S11302B0641D751D720161010B851C852D853E85AC
S11302C0CF010E941E16882399F0C82CD92CEA2C41
S11302D0FB2C00E010E0A201910160E08F85988979
S11302E00E94B01605C08E7FAF85B88957968C934F
S11302F0AF85B8895496ED91FC915597CD01199528
S11303009FC020E0B201A1018B859C85AD85BE858F
S1130310481B590B6A0B7B0B8091651890916618EA
S11303200E945F0B0E949F1181118AC04DD688C024
S11303300E949F1185C0898188230CF481C04E805E
S11303405F80D2011C968D919C911D97892B19F089
S1130350C201029664D5CE0108960E940E178B0145
S11303609C01E9810E2E000CFF0BEA30F10508F028
S113037067C08827EE58FF4F8F4F0C94F128F20185
S113038087898160878BCA80DB80EC80FD8046850D
S11303905785608971894C0D5D1D6E1D7F1DC201DD
S11303A00E941E16882309F44BC0D2015496ED9185
S11303B0FC915597C2011995F201878982FF40C0CB
S11303C04A815B816C817D8186859785A089B1890D
S11303D09A01AB01280F391F4A1F5B1FC82CD92C67
S11303E0EA2CFB2C00E010E060E0C2010E94B01691
S11303F027C0D20157968C9157978E7F57968C932E
S11304001FC0F20187898160878B4A815B816C817F
S11304107D8146875787608B718B400F511F621F08
S1130420731F68017901C2010E941E1609C0F201FE
S1130430878981FD03C0C2014ED402C08E7F878BA1
S1130440282D392D4A2D5B2D662D772D8091651829
S1130450909166180E94C70A81116DCFE8CE0E9460
S1130460B610CE0101960E940E176B877C878D878C
S11304709E87898181115CCFE0916718F09168189B
S1130480808121E0811120E0282C392C4A2C5B2C1E
S113049039CF11241FBECFEFD1E2DEBFCDBF00E0C4
S11304A00CBF18E0A0E0B2E0EEE6FBE500E00BBF15
S11304B002C007900D92A632B107D9F72AE1A6E24D
S11304C0B8E001C01D92AB30B207E1F70E94051AF3
S11304D00C94B52D95CD61E070E082E090E00C9431
S11304E0F92808950F931F93CF938C010E947921CB
S11304F0C82FF801808191810E94A8218C2FCF916F
S11305001F910F910895FC0180819181089561E00C
S113051070E084E090E00C94F9280895FC01718364
S113052060830895FC01738362830895FC01208134
S113053031812115310541F08281938128173907D2
S113054010F01AC108951DC1089561E070E088E0BB
S113055090E00C94F92808950E944D1B0C94651B9F
S113056008951F93CF93DF93EC010E947A1B182FF9
S11305700E948B1B688379838A839B830E949F1BC1
S11305806C837D838E839F83812FDF91CF911F9115
S11305900895FC0164817581868197810895FC0129
S11305A0608171818281938108950E94521E882303
S11305B021F08EE692E00E94AA2A0E94B81F8823A6
S11305C021F083E892E00E94AA2A86E298E00E9441
S11305D0641E882321F08EE992E00E94AA2A46E252
S11305E058E063EB72E084ED92E00E949620882349
S11305F021F085EE92E00E94AA2A0E94B31E88236D
S113060021F08DEF92E00E94AA2A80E00E94B91E98
S1130610883031F482E193E00E94AA2A81E00895AF
S113062080E00895EF92FF920F931F93CF93DF938F
S1130630CDB7DEB72C970FB6F894DEBF0FBECDBF93
S11306407C0108EC10E020E030E04CE050E0BE011A
S11306506D5F7F4F0E94BA0D81E0898386E08A83B3
S1130660BE016F5F7F4F80E00E94E21E8D3041F437
S11306708EE293E00E94AA2AC7010E94900C19C03E
S11306808E3099F408EC10E020E030E042E050E0D5
S113069060E070E080E090E00E94BA0D892B49F0A0
S11306A08EE493E00E94AA2A04C080E793E00E94AB
S11306B0AA2A80E090E02C960FB6F894DEBF0FBE15
S11306C0CDBFDF91CF911F910F91FF90EF900895CF
S11306D061E070E08AE090E00C94F9280895FC0150
S11306E042835383648375830895FC01468357834F
S11306F0608771870895FC01718360830895EF9288
S1130700FF920F931F93CF93DF93EC018B01FB01B7
S113071062817381848195810E94A51A0E94131AB3
S1130720E62EF80166817781808591850E94A51A5D
S11307300E94131AF62EF8016081718180E090E026
S11307400E943F1A0E94A51A0E94131A162F89EAC2
S113075093E00E94AA2A1A82EB821C82FD821E82E6
S11307601F83CE01DF91CF911F910F91FF90EF90E6
S113077008950C94D121089564E680E00C94B92185
S1130780089560E080E00C94B9210895E7E0F1E079
S113079080818F6080830895E8E0F1E09081907F0C
S11307A0908390818F70982B90830895E8E0F1E016
S11307B08081807F80830895CF93DF9380E190E0F0
S11307C0D1D1EC01009739F0FC01119211921192F0
S11307D01192CF01B1D2CE01DF91CF9108952F9222
S11307E03F924F925F926F927F928F929F92AF92BD
S11307F0BF92CF92DF92EF92FF920F931F93CF930A
S1130800DF93EC014A015B01622E702E0E94B61048
S1130810288039804A805B8001110DC081E0B201DB
S1130820A101482159216A217B21452B462B472BC5
S113083079F480E00DC081E0B201A1014821592181
S11308406A217B21481559056A057B0509F080E07A
S1130850882381F0662009F46BC080949094A0945E
S1130860B09482209320A420B52088829982AA8201
S1130870BB825EC0C114D104E104F10409F458C080
S1130880662029F040E050E060E071E003C040E001
S113089050E0BA0171107460482959296A297B29EA
S11308A097018601CE0104960E94CA120E949F11EC
S11308B0811101C089D30E94571491FD35C00FB630
S11308C0F8940F92688179818A819B8171100DC09F
S11308D021E075016401C622D722E822F922CD283D
S11308E0CE28CF2879F420E00DC021E07501640101
S11308F0C622D722E822F922C814D904EA04FB0448
S113090009F020E0222371F0662061F08094909435
S1130910A094B09486229722A822B9228882998230
S1130920AA82BB820F900FBE1B012C01552402C06A
S11309300E949F11C201B101DF91CF911F910F91CC
S1130940FF90EF90DF90CF90BF90AF909F908F90EB
S11309507F906F905F904F903F902F9008950F93EA
S11309601F930FB6F8940F92FC010081118122812C
S113097033814095509560957095402351236223AF
S1130980732340835183628373830F900FBEC90125
S1130990B8011F910F9108954F925F926F927F92C9
S11309A08F929F92AF92BF92CF92DF92EF92FF927B
S11309B00F931F93CF93DF93EC016A017B018C01AA
S11309C0095F1F4F0E94B610EB85FC8588819981D1
S11309D0AA81BB81C82AD92AEA2AFB2AC882D982D9
S11309E0EA82FB820E171F0709F445C0C12CD12CE3
S11309F0760199249394812CA480B580808191817F
S1130A00A281B381AC01BD017727B2FD0FC048803C
S1130A1059806A807B804422552266227722292DC0
S1130A2045284628472889F4282D0FC04880598036
S1130A306A807B804422552266227722292D44161F
S1130A4055066606770609F0282D222371F0B0FFBB
S1130A5004C0C42AD52AE62AF72A488159816A8122
S1130A607B817260CF010E945013EA2DFB2D0E177B
S1130A701F0711F603C0C12CD12C7601C094D09469
S1130A80E094F09488819981AA81BB81C822D922FB
S1130A90EA22FB22C882D982EA82FB820E949F1149
S1130AA0688179818A819B81DF91CF911F910F9118
S1130AB0FF90EF90DF90CF90BF90AF909F908F907A
S1130AC07F906F905F904F900895CF93DF93DC01F8
S1130AD0EFE3F8E001C0F901208131812A173B07D7
S1130AE0D0F382819381AF01480F591FA417B50732
S1130AF049F412964D915C911397840F951F93833B
S1130B008283DF0112968D919C911397ED01C80F9A
S1130B10D91F2C173D07D9F420913D0830913E0888
S1130B20C217D30781F02A813B81820F931F13964A
S1130B309C938E931297C081D1818881998111965B
S1130B409C938E9307C01196DC93CE9303C01196A9
S1130B503C932E93AE17BF0711F0B183A083DF91AE
S1130B60CF910895CF92DF92EF92FF920F931F934C
S1130B70CF93DF93EC010E94B61080913D089091D1
S1130B803E08892B41F5EFE3F8E0A3E4B8E0B18334
S1130B90A08313821282EFEDF7E1F0933E08E09315
S1130BA03D0813821282118210828CE99FE0139611
S1130BB09C938E931297ED93FC9390933A088093B1
S1130BC0390890933C0880933B0880E090E8909328
S1130BD0380880933708E0903708F0903808C70148
S1130BE08C239D23892B09F066C0209709F466C0E5
S1130BF0AE014C5F5F4F09F45EC000913B08109159
S1130C003C080417150708F456C0C0913F08D0915A
S1130C104008EFE3F8E002C0FE01E9012A813B81CC
S1130C202417350728F42881398121153105A1F7C6
S1130C3080913D0890913E08C817D907E1F1C08022
S1130C40D18084E0C80ED11C8881998191838083EE
S1130C502A813B81241B350B2930310548F0CE0114
S1130C60840F951FFC01338322835B834A832DDF2A
S1130C708A819B81081B190B10933C0800933B0845
S1130C802091390830913A080217130720F4109381
S1130C903A0800933908E82AF92AFB82EA82198281
S1130CA018820E949F11C114D10459F40E94A517FF
S1130CB0C12CD12C06C00E949F11F8CF0E949F1115
S1130CC0F5CFC601DF91CF911F910F91FF90EF9067
S1130CD0DF90CF900895CF93DF93009751F1FC01FB
S1130CE03497228133814091370850913808B901F3
S1130CF064237523672BE9F060817181672BC9F444
S1130D00EF014095509524233523338322830E9499
S1130D10B61020913B0830913C088A819B81820F58
S1130D20931F90933C0880933B08CE01CEDE0E9433
S1130D309F11DF91CF910895FC01039692838183E3
S1130D404FEF5FEFBA0143835483658376839087C3
S1130D5087839287818710820895FC011386128607
S1130D600895CF93DF939C01FB01DC011196CD9193
S1130D70DC911297D583C4838E819F819783868368
S1130D808E819F81DC0115967C936E9314977F83EB
S1130D906E8333872287F90180818F5F8083DF919F
S1130DA0CF9108950F931F93CF93DF93EB010881A5
S1130DB019812A813B810F3F4FEF14072407340721
S1130DC021F4FC01A185B28511C0DC01139601C098
S1130DD0DF011496ED91FC91159740815181628158
S1130DE07381041715072607370790F71496ED91BA
S1130DF0FC911597FD83EC83D783C683BF83AE83B1
S1130E001596DC93CE9314979B878A87FC012081E7
S1130E102F5F2083DF91CF911F910F910895CF937E
S1130E20DF93FC01A285B385C481D5818681978136
S1130E309F838E83C681D781848195819D838C8392
S1130E4011968D919C911297E817F90731F48681D8
S1130E50978112969C938E931197138612868C9188
S1130E6081508C938C91DF91CF91089531E1FC01F5
S1130E703083319722E220833197A3E3A083319713
S1130E806083319770833197108231971082319744
S1130E9060E8608331971082319710823197108215
S1130EA0319762E06083319763E06083319764E057
S1130EB06083319765E06083319766E060833197A2
S1130EC067E06083319768E06083319769E060830D
S1130ED0319760E1608331973083319732E1308319
S1130EE0319733E13083319734E13083319735E101
S1130EF03083319736E13083319737E1308331974E
S1130F0038E13083319739E13083319730E23083EF
S1130F10319731E2308331972083319723E2208364
S1130F203197408331975083319726E2208331975C
S1130F3027E22083319728E22083319729E2208316
S1130F40319720E32083319721E320838997089503
S1130F50A89590EC88E10FB6F894A895809360006A
S1130F600FBE90936000A0915D18B0915E18CD9172
S1130F70CDBFDD91DEBFFF91EF91DF91CF91BF91A6
S1130F80AF919F918F917F916F915F914F913F911D
S1130F902F911F910F91FF90EF90DF90CF90BF9012
S1130FA0AF909F908F907F906F905F904F903F9005
S1130FB02F901F900F900CBE0F900BBE0F900FBE82
S1130FC00F90089581E008950F920FB6F8940F9250
S1130FD00BB60F920CB60F921F9211242F923F92D0
S1130FE04F925F926F927F928F929F92AF92BF9235
S1130FF0CF92DF92EF92FF920F931F932F933F9321
S11310004F935F936F937F938F939F93AF93BF930C
S1131010CF93DF93EF93FF93A0915D18B0915E1887
S11310200DB60D920EB60D920E943412A0915D1869
S1131030B0915E18CD91CDBFDD91DEBFFF91EF91F0
S1131040DF91CF91BF91AF919F918F917F916F91DC
S11310505F914F913F912F911F910F91FF90EF90CE
S1131060DF90CF90BF90AF909F908F907F906F90C4
S11310705F904F903F902F901F900F900CBE0F9059
S11310800BBE0F900FBE0F9008950F920FB6F894F9
S11310900F920BB60F920CB60F921F9211242F923F
S11310A03F924F925F926F927F928F929F92AF92F4
S11310B0BF92CF92DF92EF92FF920F931F932F93E1
S11310C03F934F935F936F937F938F939F93AF93CC
S11310D0BF93CF93DF93EF93FF93A0915D18B091EB
S11310E05E180DB60D920EB60D9213BE0E94CA1074
S11310F081110E943412A0915D18B0915E18CD91B7
S1131100CDBFDD91DEBFFF91EF91DF91CF91BF9114
S1131110AF919F918F917F916F915F914F913F918B
S11311202F911F910F91FF90EF90DF90CF90BF9080
S1131130AF909F908F907F906F905F904F903F9073
S11311402F901F900F900CBE0F900BBE0F900FBEF0
S11311500F9008959ADF18950FB6F8940F92FC013A
S1131160968D0F900FBE81E0911180E008950F934A
S11311701F93CF93DF93EC01042F1E8D48A14111DF
S11311800CC088819981892B09F042C08C819D8192
S11311900E9417141D821C8242C0011117C050E026
S11311A08A819B810E94382A28A18A819B81820F8F
S11311B0911D9B838A832C813D818217930750F173
S11311C0888199819B838A8380E029C050E08E8145
S11311D09F810E94382A88A190E091958195910978
S11311E02E813F81280F391F3F832E8348815981E7
S11311F02417350730F42C813D81820F931F9F8380
S11312008E83023049F4112349F0115080E007C065
S113121080E005C080E003C080E001C080E01F5F83
S11312201E8FDF91CF911F910F910895FC0140A172
S11312304423A9F050E026813781240F351F3783DA
S11312402683848195812817390720F08081918134
S113125097838683CB01668177810C94382A08951D
S1131260EF92FF920F931F93CF938C010FB6F894D4
S11312700F92FC01C2A11C16ACF48389811106C033
S113128011C0F8018389811105C00CC07801F3E114
S1131290EF0EF11CC7010E940E1381110E9400146D
S11312A0C15079F78FEFF80182A30F900FBE0FB6EC
S11312B0F8940F92C1A11C16ACF48085811106C06C
S11312C011C0F8018085811105C00CC07801F8E0D7
S11312D0EF0EF11CC7010E940E1381110E9400142D
S11312E0C15079F78FEFF80181A30F900FBECF9112
S11312F01F910F91FF90EF900895CF93DF93EC012E
S11313000FB6F8940F92E881F9818F8D28A190E0AF
S113131030E0829FA001839F500D929F500D1124B5
S11313204E0F5F1F5D834C831E8EFB83EA83019700
S1131330829FA001839F500D929F500D1124CF01D5
S1131340840F951F9F838E838FEF89A38AA36111D6
S11313500BC08885882371F0CE0108960E940E1375
S1131360882341F031DE06C0CE010896E5DCCE01CB
S11313704396E2DC0F900FBE81E0DF91CF91089598
S1131380FF920F931F93CF93DF93082F162FF42E02
S11313906623B9F0869FC00111248596E3DBEC0136
S11313A0009741F414C00F8F18A361E0CE01A5DFAC
S11313B0FCA20DC0859699838883F5CFD983C88311
S11313C0F2CF85E290E0CEDBEC01892BB9F7CE01B8
S11313D0DF91CF911F910F91FF9008959F92AF924B
S11313E0BF92CF92DF92EF92FF920F931F93CF930E
S11313F0DF93CDB7DEB729970FB6F894DEBF0FBEE3
S1131400CDBF7C015B012E833F834887598710E061
S1131410992493946C0188E0C80ED11C0FB6F894FB
S11314200F92F701968D878D981710F00230B1F462
S1131430402FB501C7019BDEF7019389992341F041
S1131440C70143960E940E13882321F0BDDD02C01C
S11314508111BADD0F900FBE81E04EC08E819F8155
S1131460A885B985892B8A2B8B2B21F40F900FBE6D
S113147080E042C0111105C0CE0101960E949A136A
S1131480192D0F900FBE72D60FB6F8940F92F70174
S113149081A18F3F09F411A2F70182A18F3F09F4C2
S11314A012A20F900FBEBE016A5F7F4FCE0101965C
S11314B00E94AB1381111CC00FB6F8940F92F70170
S11314C0968D878D0F900FBE98130EC04E815F814D
S11314D068857985C6010E94B312C701C1DE2FD782
S11314E081119CCF71DD9ACFC701BADE28D796CF80
S11314F0C701B6DE24D780E029960FB6F894DEBF84
S11315000FBECDBFDF91CF911F910F91FF90EF9050
S1131510DF90CF90BF90AF909F900895EF92FF928D
S11315200F931F93CF93DF938A01FC01568D378D60
S1131530531710F02230E9F4422F7801EC011AA17C
S113154016DE1F3F81F48B898823A9F0CE014396D0
S11315500E940E13882389F0E114F10481F081E0E4
S1131560F70180830DC0FF24F394F10EFAA281E009
S113157007C080E005C081E003C081E001C081E0D4
S1131580DF91CF911F910F91FF90EF9008959F925B
S1131590AF92BF92CF92DF92EF92FF920F931F937D
S11315A0CF93DF93CDB7DEB729970FB6F894DEBF9C
S11315B00FBECDBF8C015B012E833F8348875987C3
S11315C0E12C992493946C0183E1C80ED11C0FB6CD
S11315D0F8940F92F801F68CFF2099F0B501C80138
S11315E025DEFA94F801F68E8085882331F0C8014F
S11315F008960E940E138111E7DC0F900FBE81E064
S11316004CC08E819F81A885B985892B8A2B8B2B11
S113161021F40F900FBE80E040C0E11005C0CE0160
S113162001960E949A13E92C0F900FBE9FD50FB616
S1131630F8940F92F80181A18F3F09F411A2F801E7
S113164082A18F3F09F412A20F900FBEBE016A5F00
S11316507F4FCE0101960E94AB13811115C0C801C2
S11316607BDD882369F04E815F8168857985C601B9
S11316707AD7C801F5DD63D68111A9CFA5DCA7CF40
S1131680C801EEDD5CD6A3CFC801EADD58D6C80197
S113169063DD882309F49BCF80E029960FB6F89484
S11316A0DEBF0FBECDBFDF91CF911F910F91FF9091
S11316B0EF90DF90CF90BF90AF909F900895CF931D
S11316C0DF93EC010FB6F8940F9289A18F3F09F4D0
S11316D019A28AA18F3F09F41AA20F900FBE8E8D12
S11316E0811103C0CE01439679D7CE01B9DDDF91D4
S11316F0CF910895FC014481558122813381240FC7
S1131700351F80819181B901681B790BCB01641766
S1131710750710F0841B950B0895AF92BF92CF927A
S1131720DF92EF92FF920F931F93CF93DF936C019D
S11317305B017A01FC01C281D381048115810C1BF8
S11317401D0B4017510708F48A01F601848595851D
S1131750A801B5018C0F9D1F0E94382A0E151F0584
S113176058F4A701401B510BB501600F711FF6011E
S1131770848595850E94382ACE018E0D9F1DF60121
S1131780248135818217930710F0821B930BF60195
S113179093838283C701DF91CF911F910F91FF90B3
S11317A0EF90DF90CF90BF90AF900895CF92DF92EB
S11317B0EF92FF920F931F93CF93DF931F921F9289
S11317C0CDB7DEB75A83498321153105C9F06B01C2
S11317D07C01FC01868580FD08C0CA0124173507F9
S11317E008F4C9019A83898311C02017310758F07E
S11317F042E050E0BE016F5F7F4FC7018EDF06C03D
S113180080E090E008C080E090E005C049815A8102
S1131810B601C70182DF0F900F90DF91CF911F9126
S11318200F91FF90EF90DF90CF900895AF92BF9209
S1131830CF92DF92EF92FF920F931F93CF93DF9398
S11318407C015B01E9014217530708F4EA01209780
S113185079F1F70100811181C480D580C01AD10AC1
S1131860CC15DD0508F46E01F70164857585600FFC
S1131870711FA601C5010E94382ACC16DD0658F452
S1131880AE014C195D09F70164857585C5018C0DA0
S11318909D1D0E94382A0C0F1D1FF701848195811C
S11318A00817190710F0081B190BF701118300839F
S11318B0CE01DF91CF911F910F91FF90EF90DF90B8
S11318C0CF90BF90AF900895EF92FF921F93CF9364
S11318D0DF93EB0111E0413009F010E0209711F49F
S11318E0C1E0D0E07C012FEFE21AF20A41963AD926
S11318F0009781F020E1FC0111922A95E9F79C01FF
S1131900205F3F4FFC0135872487F582E482D7832B
S1131910C6831687DF91CF911F91FF90EF900895B2
S1131920CF93DF93FC0127850FB6F8940F9280853F
S11319309185892BD1F482859385892BC1F4868581
S11319404681578164817581A485B58590E1EF0155
S113195019929A95E9F7B587A487758364835783A9
S113196046838687278781E003C080E001C080E04A
S11319700F900FBEDF91CF910895FC012481358132
S11319808081918142815381820F931F0197841B2F
S1131990950B8217930710F0821B930B08952F92D7
S11319A03F924F925F926F927F928F929F92AF92EB
S11319B0BF92CF92DF92EF92FF920F931F93CF9338
S11319C0DF93CDB7DEB729970FB6F894DEBF0FBE0D
S11319D0CDBF5C011B012A010E831F832887398731
S11319E0FC01868580FF05C03A01F2E06F0E711C90
S11319F001C03A018E819F81A885B985892B8A2BE4
S1131A008B2B09F434C0CE0101967ED60FB6F89420
S1131A100F92C501B2DF4C018615970518F580E0D9
S1131A2090E00E940A16F0D6F501938782870F9002
S1131A300FBECE80DF80E884F98400E010E020E06F
S1131A4030E0A90160E070E0CB0159D7F5011386BD
S1131A501286BE016A5F7F4FCE0101967CD6882331
S1131A60A9F202C00F900FBE8114910419F4C501AC
S1131A7084DF4C0183019401A201B101C50196DE0A
S1131A807C01892BD9F0C50135DEF501268137812A
S1131A908217930798F06AD3F50180859185892B85
S1131AA061F08085918500E010E020E040E050E0A6
S1131AB0BA01AFD7F5011186108641D4C701299622
S1131AC00FB6F894DEBF0FBECDBFDF91CF911F914B
S1131AD00F91FF90EF90DF90CF90BF90AF909F90C9
S1131AE08F907F906F905F904F903F902F900895CC
S1131AF0AF92BF92CF92DF92EF92FF920F931F9318
S1131B00CF93DF93EC015B016A0179018E8580FF3D
S1131B1004C08A010E5F1F4F01C08A01CE012DDF70
S1131B209C01A601B501CE0141DE6C01892BB1F007
S1131B30CE01E0DD2E813F818217930778F08885FE
S1131B409985892B59F08885998500E010E020E07B
S1131B5040E050E0BA01D5D719861886C601DF9156
S1131B60CF911F910F91FF90EF90DF90CF90BF9096
S1131B70AF9008954F925F926F927F928F929F924F
S1131B80AF92BF92CF92DF92EF92FF920F931F9387
S1131B90CF93DF931F921F92CDB7DEB75C012B0169
S1131BA03A0168017901FC01868580FD03C0812C1E
S1131BB0912C04C06894882481F8912CC114D10418
S1131BC0E104F10431F10FB6F8940F92C50192DDEE
S1131BD08C018816990640F080E090E00E940A1675
S1131BE013D6F501918780870F900FBE801691065A
S1131BF0B0F000E010E020E030E0A90160E070E027
S1131C00CB017DD6F50111861086C50173DD8C01EB
S1131C1003C0C5016FDD8C0180169106B8F58114EF
S1131C209104C1F0F501E080F1809801A401BE01A6
S1131C306F5F7F4FC501FADD89819A8108191909FF
S1131C406816790630F4F501F182E082612C712C7A
S1131C5001C03C019801A301B201C501E7DD7C018B
S1131C60892BB1F083D2F50182859385892B61F0AC
S1131C708285938500E010E020E040E050E0BA0166
S1131C80C8D6F501138612865AD302C0E12CF12C72
S1131C90C7010F900F90DF91CF911F910F91FF908B
S1131CA0EF90DF90CF90BF90AF909F908F907F90F8
S1131CB06F905F904F900895FC0140815181228183
S1131CC0338181E04217530709F080E00895E091E1
S1131CD01918F0911A18808181110CC08FEF9FEFB1
S1131CE0DC018093E6179093E717A093E817B0936D
S1131CF0E9170895E0911918F0911A180780F085F2
S1131D00E02D0084F185E02D82819381A481B58149
S1131D108093E6179093E717A093E817B093E91719
S1131D2008958F929F92AF92BF92CF92DF92EF92DB
S1131D30FF92CF936B017C01C42F8090F017909099
S1131D40F117A090F217B090F31780915D1890915D
S1131D505E18029664D88FEFC816D806E806F8060F
S1131D6069F4CC2359F060915D1870915E186E5F30
S1131D707F4F85EF97E10E94B1063FC0C80CD91C84
S1131D80EA1CFB1CE0915D18F0915E18C282D382BC
S1131D90E482F582C814D904EA04FB0468F460916F
S1131DA05D1870915E1880911718909118186E5FE5
S1131DB07F4F0E94D20621C060915D1870915E1819
S1131DC08091191890911A186E5F7F4F0E94D20665
S1131DD08091E6179091E717A091E817B091E91761
S1131DE0C816D906EA06FB0640F4C092E617D0925C
S1131DF0E717E092E817F092E917CF91FF90EF9080
S1131E00DF90CF90BF90AF909F908F9008954F92A6
S1131E105F926F927F928F929F92AF92BF92CF9276
S1131E20DF92EF92FF920F93CF93DF934C016B01FC
S1131E305A012901CA010E94B2053C01892B09F407
S1131E40F4C080E390E00E94B205EC01892B99F084
S1131E507C8E6B8EA50165EA70E0C3010E94412A65
S1131E6021E0A21AB1088B8D9C8DA80EB91EC11455
S1131E70D10429F420C0C3010E946B06D6C0D60148
S1131E808C918D8F8C918823A1F0AE01425E5F4FBF
S1131E90F6013196B8E0CB0ED11CCF012191DA01C5
S1131EA02D93AD01DC018C91882319F0EC15FD050F
S1131EB0A1F71CA201C01D8E043008F003E00A8FB4
S1131EC00FA318A66E01B2E0CB0ED11CC6010E946E
S1131ED0AD06CE010E960E94AD06DB87CA8784E06C
S1131EE090E0A0E0B0E0801B9109A109B1098E87C0
S1131EF09F87A88BB98BDF8BCE8B1AA619A61BA63E
S1131F001CA61DA61EA61FA6A201B401C5010E94FF
S1131F10360799838883E114F10419F0F701D1831A
S1131F20C0830FB6F8940F928091F4178F5F80935B
S1131F30F41780915D1890915E18892BD1F5D09398
S1131F405E18C0935D188091F417813009F041C088
S1131F5081E398E10E949C068CE398E10E949C0630
S1131F6087E498E10E949C0682E598E10E949C0621
S1131F7086E298E10E949C068BE198E10E949C060F
S1131F808CE098E10E949C0681E098E10E949C0606
S1131F9085EF97E10E949C0686E298E190931A18D7
S1131FA0809319188BE198E190931818809317186F
S1131FB010C08091EE1781110CC0E0915D18F09172
S1131FC05E18928D8A8D891720F0D0935E18C09385
S1131FD05D188091EA178F5F8093EA178DA38A8D2D
S1131FE09091EF17981710F48093EF17FBE08F9FF1
S1131FF0C0011124B6018F5C974E0E94B1060F9068
S11320000FBE8091EE17882361F0E0915D18F09186
S11320105E18928D8A8D981730F40E94E40781E04F
S113202005C081E003C081E001C08FEFDF91CF9153
S11320300F91FF90EF90DF90CF90BF90AF909F9063
S11320408F907F906F905F904F9008950F931F93A0
S1132050CF93DF93EC010FB6F8940F92892B21F400
S1132060C0915D18D0915E188E010E5F1F4FC8019C
S11320700E940F07888D998D892B21F0CE010E9631
S11320800E940F078091EA178F5F8093EA1780916F
S11320905D1890915E18C817D90759F4B80181E00A
S11320A098E10E94B106809100188F5F8093001818
S11320B00DC08091F41781508093F4178B8D9C8D03
S11320C00E946B06CE010E946B0601DE0F900FBECC
S11320D08091EE17882349F080915D1890915E18E5
S11320E0C817D90711F40E94E407DF91CF911F911B
S11320F00F910895EF92FF920F930F2EF4EEEF2EAF
S1132100F7E1FF2EF02D00E020E030E040EC50E05D
S11321106BEB73E08DEC90E07ADE813019F500D63C
S1132120813001F5F8948FEF9FEFDC018093E6177F
S11321309093E717A093E817B093E91781E0809391
S1132140EE171092F0171092F1171092F2171092E6
S1132150F317E0915D18F0915E1881A50E94CC03FD
S11321600E94A8070F91FF90EF9008958091E317C4
S11321708F5F8093E31708950FB6F8940F926091E0
S1132180F0177091F1178091F2179091F3170F9057
S11321900FBE08959F92AF92BF92CF92DF92EF92BB
S11321A0FF920F931F93CF93DF938091E3178111D5
S11321B0ADC0C090F017D090F117E090F217F090F6
S11321C0F3178FEFC81AD80AE80AF80AC092F01772
S11321D0D092F117E092F217F092F317C114D104E0
S11321E0E104F104B1F48091191890911A18209126
S11321F017183091181830931A18209319189093BF
S11322001818809317188091EB178F5F8093EB1742
S11322105EDD8091E6179091E717A091E817B091E1
S1132220E917C816D906EA06FB0610F4B12C5DC0FE
S1132230B12C0F2EFBE0AF2EF02D99249394E09156
S11322401918F0911A18808181110CC08FEF9FEF3B
S1132250DC018093E6179093E717A093E817B093F7
S1132260E91743C0E0911918F0911A180780F08516
S1132270E02DC085D1858A819B81AC81BD81C81642
S1132280D906EA06FB0648F48093E6179093E7170D
S1132290A093E817B093E91728C08E010E5F1F4F73
S11322A0C8010E940F07888D998D892B21F0CE01DA
S11322B00E960E940F078A8D9091EF17981710F4CD
S11322C08093EF17A89EC0011124B8018F5C974E2C
S11322D00E94B106E0915D18F0915E189A8D828D8E
S11322E0981708F4ACCFB92CAACFE0915D18F091FF
S11322F05E18E28D8BE0E89FF0011124EF5CF74E4D
S11323008081823048F0BB24B39406C08091ED17DD
S11323108F5F8093ED17B12C8091EC17882311F017
S1132320BB24B3948B2DDF91CF911F910F91FF901C
S1132330EF90DF90CF90BF90AF909F900895CF9291
S1132340DF92EF92FF920F931F93CF93DF930FB619
S1132350F8940F928091E31781508093E317809152
S1132360E31781115AC08091F41781112CC058C011
S1132370D7011796ED91FC911897C085D185CE01B0
S11323800E960E940F078E010E5F1F4FC8010E9418
S11323900F078A8D9091EF17981710F48093EF1719
S11323A0D89EC0011124B8018F5C974E0E94B106DB
S11323B0E0915D18F0915E189A8D828D981788F0DF
S11323C0C092EC170EC0C0E0D0E00F2EFCE0EF2E60
S11323D0F8E1FF2EF02D0F2EFBE0DF2EF02DCC24A4
S11323E0C394F70180818111C3CFCD2B09F06FDC39
S11323F0C091ED17CC2349F0D1E0CCDE8111D0930C
S1132400EC17C150D1F71092ED178091EC17882387
S113241031F00E94E40781E003C080E001C080E065
S11324200F900FBEDF91CF911F910F91FF90EF900E
S1132430DF90CF900895CF92DF92EF92FF926B01DD
S11324407C01672B682B692B41F090DE40E0C701CB
S1132450B60167DC74DF811102C00E94E407FF90BB
S1132460EF90DF90CF9008958091E317882321F0B7
S113247081E08093EC1708951092EC17E0915D18B9
S1132480F0915E1881A50E94D603A0915D18B091C9
S11324905E18E0915D18F0915E182D913C91838D4A
S11324A0948D8217930758F060915D1870915E18AF
S11324B080915D1890915E18635E7F4F53D5809133
S11324C0EF17282F30E09BE0899FF0011124EF5C87
S11324D0F74E908191110EC04BE08150282F30E0CF
S11324E0429FF001439FF00D1124EF5CF74E908161
S11324F0992399F39BE0929FA001939F500D11247F
S1132500DA01AF5CB74E1196ED91FC9112970480FD
S1132510F581E02D1296FC93EE9311974C5C574E87
S1132520E417F50729F444815581FD015283418361
S11325309BE0929FF001939FF00D1124EF5CF74E06
S11325400180F281E02D2085318530935E1820933F
S11325505D188093EF17E0915D18F0915E1881A5E6
S11325600C94CC030895CF92DF92EF92FF926A010C
S11325707B0160915D1870915E18625F7F4F0E94CD
S1132580D20641E0C701B601CCDBFF90EF90DF90AB
S1132590CF900895CF92DF92EF92FF920F931F9303
S11325A068017901E0915D18F0915E1870684687C2
S11325B05787608B718B60915D1870915E18625FB4
S11325C07F4F0E94B10641E0C701B601AADB1F910B
S11325D00F91FF90EF90DF90CF900895CF92DF920C
S11325E0EF92FF92CF936A017B01C22F60915D1835
S11325F070915E18625F7F4F0E94B106CC2321F078
S1132600CC24CA94DC2C76014C2FC701B60189DB9B
S1132610CF91FF90EF90DF90CF9008950F931F9389
S1132620CF93DF93DC011796ED91FC911897C08549
S1132630D1858E01025F1F4FC8010E940F07809150
S1132640E317811116C00C501109C8010E940F072D
S11326508A8D9091EF17981710F48093EF17BBE0D1
S11326608B9FC0011124B8018F5C974E0E94B10664
S113267005C0B8018CE098E10E94B106E0915D18B4
S1132680F0915E189A8D828D891720F481E08093F1
S1132690EC1701C080E0DF91CF911F910F91089555
S11326A00F931F93CF93DF937068FC014083518392
S11326B062837383C085D1850E940F078E010E5FEC
S11326C01F4FC8010E940F078A8D9091EF1798172A
S11326D010F48093EF17FBE08F9FC0011124B80121
S11326E08F5C974E0E94B106E0915D18F0915E18E0
S11326F09A8D828D891718F481E08093EC17DF910D
S1132700CF911F910F9108950FB6F8940F922091D5
S1132710EB17FC0120834091F0175091F117609161
S1132720F2177091F31741835283638374830F907C
S11327300FBE08952091EB17FC0120834091F01700
S11327405091F1176091F2177091F31741835283FE
S1132750638374830895CF92DF92EF92FF920F9375
S11327601F93CF93DF93FB010FB6F8940F92409120
S1132770F0175091F1176091F2177091F3170081DF
S11327801181228133810F3FAFEF1A072A073A07DD
S113279049F1EC01C980DA80EB80FC80A091EB1751
S11327A0B881BA1729F04C155D056E057F05E0F474
S11327B04C195D096E097F094017510762077307B9
S11327C058F4041B150B260B370B0083118322834B
S11327D03383B0DF80E009C0108211821282138239
S11327E081E003C080E001C081E00F900FBEDF9163
S11327F0CF911F910F91FF90EF90DF90CF900895AC
S113280081E08093EC17089580915D1890915E1893
S113281008958091EE17882331F08091E31788237F
S113282021F080E0089581E0089582E008950F93F7
S11328301F93CF93DF93FC01892B79F180A58150FD
S113284080A7228D97A1291751F181112AC0EF0188
S11328508F010E5F1F4FC8010E940F078FA18A8F3F
S113286044E050E060E070E0481B510961097109DF
S11328704E875F87688B798B9091EF17981710F4C8
S11328808093EF172BE0829FC0011124B8018F5C65
S1132890974E0E94B10681E005C080E003C080E04D
S11328A001C080E0DF91CF911F910F910895CF92E5
S11328B0DF92EF92FF92E0915D18F0915E186685C9
S11328C0778580899189E0915D18F0915E18A091D7
S11328D05D18B0915E185A962C91C12CD12C7601BA
S11328E06894C2F8C21AD108E108F108C686D786EE
S11328F0E08AF18AFF90EF90DF90CF9008954F9295
S11329005F926F927F928F929F92AF92BF92CF927B
S1132910DF92EF92FF920F931F9349015A010FB672
S1132920F8940F92E0915D18F0915E1827A522307B
S113293039F1E0915D18F0915E1843A454A465A4A4
S113294076A4DC01CB0180959095A095B095842167
S11329509521A621B72183A794A7A5A7B6A7E0919F
S11329605D18F0915E1881E087A7C114D104E104D9
S1132970F10431F041E0C701B601D3D90E94E40764
S11329800F900FBE0FB6F8940F920115110569F060
S1132990E0915D18F0915E1883A594A5A5A5B6A550
S11329A0F80180839183A283B383E0915D18F09151
S11329B05E1887A58230B1F4E0915D18F0915E183D
S11329C083A594A5A5A5B6A580949094A094B0944D
S11329D088229922AA22BB2283A694A6A5A6B6A6DB
S11329E081E001C080E0E0915D18F0915E1817A6C7
S11329F00F900FBE1F910F91FF90EF90DF90CF903B
S1132A00BF90AF909F908F907F906F905F904F900A
S1132A1008950F931F93CF93DF93FC010FB6F8949F
S1132A200F920115110549F083A594A5A5A5B6A596
S1132A30E80188839983AA83BB8387A592E097A73B
S1132A402230B1F018F4213031F02AC02330E9F0FB
S1132A50243001F125C003A514A525A536A5402BD6
S1132A60512B622B732B43A754A765A776A718C0D5
S1132A7043A554A565A576A54F5F5F4F6F4F7F4F64
S1132A8043A754A765A776A70BC043A754A765A778
S1132A9076A706C0823049F143A754A765A776A755
S1132AA0813029F5EF018F010E5F1F4FC8010E948D
S1132AB00F078A8D9091EF17981710F48093EF17F2
S1132AC02BE0829FC0011124B8018F5C974E0E94B5
S1132AD0B106E0915D18F0915E189A8D828D891788
S1132AE040F40E94E40781E005C080E003C081E077
S1132AF001C081E00F900FBEDF91CF911F910F9124
S1132B000895EF92FF920F931F93CF93DF93FC01ED
S1132B100115110549F083A594A5A5A5B6A5E8015D
S1132B2088839983AA83BB8387A592E097A72230E1
S1132B30B1F018F4213031F02AC02330E9F0243008
S1132B4001F125C003A514A525A536A5402B512BBD
S1132B50622B732B43A754A765A776A718C043A578
S1132B6054A565A576A54F5F5F4F6F4F7F4F43A771
S1132B7054A765A776A70BC043A754A765A776A754
S1132B8006C08230D9F143A754A765A776A7813040
S1132B90B9F5EF018091E317811117C08F010E5F22
S1132BA01F4FC8010E940F078A8D9091EF17981745
S1132BB010F48093EF17EBE08E9FC0011124B8014D
S1132BC08F5C974E0E94B10607C0BF01625F7F4FC2
S1132BD08CE098E10E94B106E0915D18F0915E18D6
S1132BE09A8D828D891770F4E114F10419F081E053
S1132BF0E701888381E08093EC1705C080E003C07F
S1132C0081E001C081E0DF91CF911F910F91FF908E
S1132C10EF900895009721F480915D1890915E18CB
S1132C200FB6F8940F92FC0127A5223019F417A6C9
S1132C3081E001C080E00F900FBE0895CF92DF9233
S1132C40EF92FF920F931F93FC014283538364839B
S1132C507583938782870417150726073707C0F003
S1132C600C191D092E093F0986859785A089B1890C
S1132C70081719072A073B0700F5BF016E5F7F4F4E
S1132C8080916718909168180E94D20680E018C05D
S1132C900C151D052E053F0528F44C155D056E0524
S1132CA07F0568F4BF016E5F7F4F80916918909132
S1132CB06A180E94D20680E003C081E001C081E06E
S1132CC01F910F91FF90EF90DF90CF9008950FB672
S1132CD0F8940F928091651890916618892BE9F405
S1132CE086E798E10E949C068BE698E10E949C0688
S1132CF086E798E190936A18809369188BE698E1C7
S1132D00909368188093671840E067E08AE00E9417
S1132D10C00990936618809365180F900FBE0895AC
S1132D20EF92FF920F93D3DF80916518909166180C
S1132D30892B89F00F2EF3E6EF2EF8E1FF2EF02D0C
S1132D4003E020E030E045E550E060EC73E083E030
S1132D5091E05DD801C080E00F91FF90EF9008955D
S1132D608F929F92AF92BF92CF92DF92EF92FF9297
S1132D700F931F93CF93DF93CDB7DEB727970FB68B
S1132D80F894DEBF0FBECDBFE0916518F0916618D0
S1132D90309781F169832A833B834C835D839F83CE
S1132DA08E836630F4F435DD823069F400E0A701E7
S1132DB09601BE016F5F7F4F8091651890916618F0
S1132DC00E94EE0918C000E020E030E0A901BE0135
S1132DD06F5F7F4F80916518909166180E94EE098D
S1132DE00AC020E0A801BE016F5F7F4FCF010E949F
S1132DF08E0A01C080E027960FB6F894DEBF0FBE9E
S1132E00CDBFDF91CF911F910F91FF90EF90DF9095
S1132E10CF90BF90AF909F908F9008952F923F9244
S1132E204F925F926F927F928F929F92AF92BF92D6
S1132E30CF92DF92EF92FF920F931F93CF93DF9382
S1132E401C019AD92B013C0180915F189091601864
S1132E50A0916118B0916218481659066A067B065B
S1132E6008F053C03BC00780F085E02D808091803E
S1132E70A280B380C085D1858E010E5F1F4FC8012B
S1132E800E940F07EC89FD89CE0119958F8982FF75
S1132E9025C08E859F85A889B989880D991DAA1D8D
S1132EA0BB1D88169906AA06BB0670F48A839B8309
S1132EB0AC83BD83DB87CA87B80180916918909180
S1132EC06A180E94D2060AC0C12CD12C760100E0F7
S1132ED010E0A501940160E0CE0142DFE0916918A1
S1132EE0F0916A1880818111BECF8091671890910A
S1132EF0681890936A1880936918F0936818E0939F
S1132F00671881E0F101808302C0F10110824092D0
S1132F105F18509260186092611870926218C30131
S1132F20B201DF91CF911F910F91FF90EF90DF904D
S1132F30CF90BF90AF909F908F907F906F905F9055
S1132F404F903F902F9008950895279A2F9A2FEF2E
S1132F5080E792E0215080409040E1F700C00000FB
S1132F601F9AF5CF279A2F9A2FEF87EA91E62150DF
S1132F7080409040E1F700C000001F9AF5CF88EC34
S1132F8093E00E94AA2A81E079D662E070E080E0B2
S1132F9090E051DA80E072D666E970E080E090E07B
S1132FA04ADA80D621D60E94D502882381F041E0F6
S1132FB050E060E070E08091E7199091E8190E9478
S1132FC0CC04809181189091821840C808958EEDA8
S1132FD093E00E94AA2A80E090E00E94B52DCC24C0
S1132FE0CA94DC2C760101E021E041E050E060E08D
S1132FF070E08091E7199091E8190E94EF036093C3
S1133000E1197093E2198093E3199093E41960FF36
S1133010E6CF8091D9199091DA190E94720246E0A4
S113302050E060E070E08091E7199091E8190E9407
S1133030CC04D5CF0F2EF4E6CF2ED12CE12CF12CDD
S1133040F02D00E021E042E050E060E070E080918B
S1133050E7199091E8190E94EF036093E1197093C6
S1133060E2198093E3199093E41961FFE3CF80910F
S1133070E5199091E6190E94B10248E050E060E041
S113308070E08091E7199091E8190E94CC04D2CFA6
S1133090CF93DF93CDB7DEB768970FB6F894DEBF52
S11330A00FBECDBF69D80F2EF4E6CF2ED12CE12C64
S11330B0F12CF02D01E021E04CE050E060E070E004
S11330C08091E7199091E8190E94EF036093E11948
S11330D07093E2198093E3199093E419DC01CB0116
S11330E08C709927AA27BB270C97A105B105D9F69F
S11330F08091E5199091E6190E94CF02AB01BC01C1
S11331008091E9199091EA190E946F038091E51961
S11331109091E6190E94C902AB01BC018091E919A2
S11331209091EA190E9475038091D9199091DA1946
S11331300E948302BC018091E9199091EA190E94CE
S11331407B036091E9197091EA19CE010D960E94F2
S11331507F038CE0FE013D96DE01119601900D92F5
S11331608A95E1F704E610E020E030E04AE050E020
S1133170BE016D5F7F4F8091DE199091DF190E942F
S1133180CF0C40E250E060E070E08091E71990914C
S1133190E8190E94CC0460ED77E080E090E04BD920
S11331A040E250E060E070E08091E7199091E81906
S11331B00E94AF0464EF71E080E090E03CD941E00C
S11331C050E060E070E08091E7199091E8190E9466
S11331D0CC0469CF8091DE199091DF190E945C0EB6
S11331E08111F8CF8091DE199091DF190E941203AA
S11331F0EC018091DE199091DF190E94900C68EC2B
S113320070E080E090E017D9209721F3BE0180910F
S1133210DB199091DC190E948E02DCCF0F2EF4E6AC
S1133220CF2ED12CE12CF12CF02D00E020E040E257
S113323050E060E070E08091E7199091E8190E94F5
S1133240EF036093E1197093E2198093E31990936B
S1133250E41965FFE3CF8091E5199091E6190E9486
S1133260B1028091E5199091E6190E94CF02DBD05A
S11332708091DB199091DC190E9492028091DB19F4
S11332809091DC190E94960268EE73E080E090E071
S1133290D2D8C4CFEF92FF920F93E12CF12C03E02C
S11332A020E030E040EC50E06DE274E08FEE97E116
S11332B00E94070F20E030E040EC50E063E374E04C
S11332C08AE198E10E94070F0F2EF1E8EF2EF8E152
S11332D0FF2EF02D04E020E030E040EC50E069E304
S11332E074E08FEB97E10E94070FE12CF12C02E0D0
S11332F020E030E040EC50E06FE374E088E498E1D3
S11333000E94070F01E020E030E040EC50E065E46B
S113331074E08AEE98E10E94070F20E030E040EC70
S113332050E065E474E08EE099E10E94070F0F918C
S1133330FF90EF9008950E94A5029093E619809360
S1133340E5190E9468039093EA198093E9190E9491
S11333506B029093DA198093D9190E948702909393
S1133360DC198093DB198091E5199091E6190E948C
S1133370AC028093D819882321F08BE494E00E9456
S1133380AA2A0E94B9038091DD19882321F086EAD4
S113339094E00E94AA2A0E94C60380E00E948C2521
S11333A085E01CD160E070E081E025D473DF0E94E9
S11333B0DC039093E8198093E719892B51F48FED7E
S11333C094E09F938F930E94972A80E090E00E945C
S11333D0B52D41E060E070E08FEF90E00E94640C56
S11333E09093DF198093DE198091E7199091E81981
S11333F0892B51F482E195E09F938F930E94972A41
S113340080E090E00C94B52D089595DF88E495E074
S11334109F938F930E94972A0E947A100F900F9087
S113342080E090E0089570D088F09F5790F0B92F15
S11334309927B751A0F0D1F0660F771F881F991F05
S11334401AF0BA95C9F712C0B13081F077D0B1E063
S1133450089574C0672F782F8827B85F39F0B93F73
S1133460CCF3869577956795B395D9F73EF4909507
S11334708095709561957F4F8F4F9F4F0895E89485
S113348009C097FB3EF490958095709561957F4FA8
S11334908F4F9F4F9923A9F0F92F96E9BB27939556
S11334A0F695879577956795B795F111F8CFFAF466
S11334B0BB0F11F460FF1BC06F5F7F4F8F4F9F4F97
S11334C016C0882311F096E911C0772321F09EE8F5
S11334D0872F762F05C0662371F096E8862F70E05B
S11334E060E02AF09A95660F771F881FDAF7880F35
S11334F09695879597F9089557FD9058440F551F51
S113350059F05F3F71F04795880F97FB991F61F061
S11335109F3F79F087950895121613061406551FD8
S1133520F2CF4695F1DF08C0161617061806991F44
S1133530F1CF86957105610508940895E894BB2739
S113354066277727CB0197F90895DEDFE0F09E37F1
S1133550D8F09639B8F49E3848F4672F782F882726
S1133560985FF9CF86957795679593959539D0F3BC
S1133570B62FB1706B0F711D811D20F4879577955F
S11335806795939502C01CC0DACF882371F4772322
S113359021F09850872B762F07C0662311F49927C2
S11335A00DC09051862B70E060E02AF09A95660F6A
S11335B0771F881FDAF7880F9695879597F90895EE
S11335C09F3F31F0915020F4879577956795B79593
S11335D0880F911D9695879597F90895EBEEF9E17B
S11335E02CE231E2318320832FE231E233832283E0
S11335F02AE331E2358324832EE331E237832683C1
S113360024E431E23187208720E531E233872287C1
S113361025E531E23587248721E631E2378726879D
S113362021E431E2318B208B26E631E2338B228B8D
S113363023E731E2358B248B682FCF0138C10895FD
S11336406530F1F4FA0180818F7390E0982F882718
S11336502181822B90930902809308028281F0E4F5
S11336608F9FC0011124FA01238126952695822B70
S1133670909307028093060281E080938318089553
S1133680643051F080E090E4909307028093060246
S1133690909309028093080208950F931F9300E208
S11336A01BE120E034E244EF50E060E087E20E9456
S11336B0C625909385188093841821E0892B09F0FE
S11336C020E0822F1F910F9108958091841890918A
S11336D08518009759F040E060E070E00E941726DA
S11336E0843031F41092831880E0089582E00895C4
S11336F083E008958091841890918518009739F09B
S113370064E00E946326853021F083E0089582E01E
S1133710089580E00895609108027091090280E0A4
S113372090E0ADDE20E030E048EC52E40E946928ED
S113373020E038EF4FE756E40C94D62708956091C3
S113374006027091070280E090E099DE20E030E00C
S113375045E253E40E94692820E038EF4FE756E43D
S11337600E94D62720E030E040E252E40C946F2718
S11337700895CF93DF9390E0FC01EE0FFF1FE80F55
S1133780F91FEE0FFF1FEA57F74E238121110AC0DC
S1133790EF01E091F319F091F4196A81888199811C
S11337A0199512C0DC01AA0FBB1FED01C80FD91F68
S11337B0CC0FDD1FCA57D74EE091FD19F091FE19C9
S11337C06A81888199811995DF91CF910895CF936A
S11337D0DF9390E0FC01EE0FFF1FE80FF91FEE0FDF
S11337E0FF1FEA57F74E238121110AC0EF01E09130
S11337F0FD19F091FE196A8188819981199512C089
S1133800DC01AA0FBB1FED01C80FD91FCC0FDD1FB0
S1133810CA57D74EE091F319F091F4196A8188815F
S113382099811995DF91CF9108950F2EFBEECF2E3C
S1133830F9E1DF2EF02D04E0C6E8D8E110E08C8138
S1133840813069F0E8F0823039F5D6011C96ED91AB
S1133850FC911D976A818881998119951DC08D817C
S11338608F5F8A3010F48D8317C01D82D6011C9699
S1133870ED91FC911D976A818881998119950CC0FD
S11338808D81882331F0812FA2DF8D8181508D833A
S113389003C00C83812F6DDF1F5F2696143079F6E9
S11338A065E070E080E090E00E941B12C5CFCF92EB
S11338B0DF92EF92FF920F931F93CF93DF93062F24
S11338C00F2EFBEEEF2EF9E1FF2EF02DD701189607
S11338D0ED91FC91199766E087E290E01995C6E8AE
S11338E0D8E10F2EF8E2CF2ED12CF02DD982C88248
S11338F086E08A831B8214E01C8380E03ADFD701D0
S11339001896ED91FC91199767E087E290E019957C
S1133910DF82CE8287E0888719861A8781E029DFD3
S1133920D7011896ED91FC91199765E083E390E037
S11339301995D7011896ED91FC91199761E084E3EC
S113394090E0199584E390E09D878C8785E08E87CD
S11339501F86188B82E00DDFD7011896ED91FC913C
S1133960199764E081E091E01995D7011896ED91DB
S1133970FC91199761E082E091E0199582E091E071
S11339809B8B8A8B1C8B1D8A1E8B83E0F2DEE12CC1
S1133990F12C20E030E040EC50E062E575E085E198
S11339A09CE10E94070FDF91CF911F910F91FF902F
S11339B0EF90DF90CF9008950F931F93CF93DF93F1
S11339C01F921F92CDB7DEB78C0119822DC0E091F2
S11339D00219EC3250F481E08E0F80930219F0E06A
S11339E0EC5CF64E8A81808302C0109202198A81AF
S11339F08A30D1F44091021950E0FA01EE5CF64E9F
S1133A001082415051099E012F5F3F4F64E379E1D9
S1133A1080910519909106190E94780D8981811170
S1133A200E94E40710920219BE016E5F7F4FC80125
S1133A30E1D5882361F20F900F90DF91CF911F9110
S1133A400F9108950F931F93CF93DF938C01EB0194
S1133A5080910519909106190E94900CB8018EE985
S1133A6098E10E94782A209779F0EEE9F8E1019034
S1133A700020E9F7319780E290E091838083BE01D2
S1133A808EE998E10E946D2AEEE9F8E1DF010D90DC
S1133A900020E9F711978DE09AE011969C938E939C
S1133AA012961C9201900020E9F73197EE59F841E3
S1133AB0AE2F8EE998E1AC016A2F8091071990919D
S1133AC0081948D5811111C008E215E020E030E062
S1133AD04DE250E06EE879E1809105199091061964
S1133AE00E94BA0D8EE899E102C080E090E0DF9177
S1133AF0CF911F910F9108952F923F924F925F9211
S1133B006F927F928F929F92AF92BF92CF92DF92E9
S1133B10EF92FF920F931F93CF93DF935C01FC010D
S1133B2001900020E9F731976F01C81AD90A5C2C7B
S1133B300F2EF3EF8F2EF7E09F2EF02DE12CF12CBA
S1133B404C2C3701F40101811281E8010990002015
S1133B50E9F72197C01BD10B3C2EF9E0CF16D10415
S1133B6058F0F4012080FEE02F1206C0B801C50110
S1133B700E94482A892B09F5442D351408F44C2F4A
S1133B8050E0B801C5010E947F2A892B49F4F30152
S1133B90EE0FFF1FE60DF71DED50F84F20800DC00E
S1133BA08FEFE81AF80AE3E08E0E911CF1E1EF16AC
S1133BB0F10439F66894222424F8822DDF91CF9100
S1133BC01F910F91FF90EF90DF90CF90BF90AF9037
S1133BD09F908F907F906F905F904F903F902F9029
S1133BE0089530DF89CF08958091051990910619C1
S1133BF00C94900C08958F929F92AF92CF92EF9273
S1133C000F931F93CF93C82F8B0141E060E070E0C6
S1133C1088EC90E00E94640C909306198093051937
S1133C2010930419009303190F2EFCED8F2EFCE161
S1133C309F2EF02D6894AA24A6F86894CC24C6F884
S1133C40E12C00E023E040E051EE60E070E08C2FD6
S1133C50C4D39093081980930719E091F319F09154
S1133C60F41964E087E091E01995CF911F910F91C9
S1133C70EF90CF90AF909F908F900895882349F054
S1133C80E091FD19F091FE1964E088E091E0199546
S1133C900895E091F319F091F41964E088E091E05B
S1133CA01995089560E070E089E795E0CBDEEEE8D1
S1133CB0F9E101900020E9F73197EE58F94181E0EC
S1133CC0759708F080E00895CF93DF93EC0160E0EE
S1133CD070E08AE895E0B6DEEEE8F9E101900020B4
S1133CE0E9F7EF59F94139F46EE879E1CE010E9420
S1133CF0782A80E002C0188281E0DF91CF91089594
S1133D00FC0101900020E9F79F0121513109281796
S1133D10390729F4BC0188EB95E063CF089589E065
S1133D200895FC0101900020E9F79F012151310918
S1133D302817390729F4BC0187EC95E052CF089580
S1133D4089E00895FC0101900020E9F79F012152C8
S1133D5031092817390729F4BC0186ED95E041CFD4
S1133D60089589E0089560E070E085E196E039CF38
S1133D7008950F931F93E82FF0E0EE0FFF1FE1511A
S1133D80F84F608171818EE196E02BDF811114C0C0
S1133D9008E215E020E030E04DE250E06EE879E121
S1133DA080910519909106190E94BA0D882321F07B
S1133DB08EE899E1A1DE03C08EE899E19DDE1F91B2
S1133DC00F9108950F931F93CF93DF931F92CDB755
S1133DD0DEB7DB0111969C911197953108F0B4C0C0
S1133DE0992381F160E070E0272F30E0462F50E006
S1133DF0FD01E40FF51F928192959F709A3010F0A7
S1133E00995C01C0905DF901E15EF64E90832F5FED
S1133E103F4FFD01E40FF51F92819F70492F50E041
S1133E204A30510514F0995C01C0905DF901E15EDE
S1133E30F64E90837E5F6F5F11969C911197691780
S1133E4098F201C070E0E72FF0E0E15EF64E1082D8
S1133E504C91811103C087E296E002C089E296E0AA
S1133E602FE139E13F932F931F924F939F938F93A9
S1133E708DE296E09F938F9381E699E19F938F93D0
S1133E800E94DA2A60E070E081E699E1AADE0FB6CA
S1133E90F894DEBF0FBECDBF811159C008E215E012
S1133EA020E030E04DE250E06EE879E180910519C0
S1133EB0909106190E94BA0D882309F447C08EE830
S1133EC099E11ADE8E3009F042C087E0898380913F
S1133ED0031990910419892BA9F1BE016F5F7F4FDB
S1133EE08EE899E144D180930919E981F0E0E25721
S1133EF0F64EDF010D900020E9F71197AE1BBF0BC2
S1133F00AA2391F0BB27CD0101979C0112F42F5FE6
S1133F103F4F3595279520930A19AF014F5F5F4FA7
S1133F2064E18BE099E14FD101E010E020E030E062
S1133F3046E150E069E079E1809103199091041918
S1133F400E94CF0C8EE003C084E101C080E00F909A
S1133F50DF91CF911F910F910895813019F06DE396
S1133F6076E002C066E177E081E496E03ACE089517
S1133F702F923F924F925F926F927F928F929F9275
S1133F80AF92BF92CF92DF92EF92FF920F931F9363
S1133F90CF93DF93CDB7DEB7A0970FB6F894DEBF0B
S1133FA00FBECDBF6FE976E08BEA96E04BDDA4DD72
S1133FB08111A3C080E2E1E2F2E0DE0111960190FA
S1133FC00D928A95E1F79E012F5F3F4F6901E12C25
S1133FD0F12C0F2EF7EBAF2EF6E0BF2EF02D01E6FD
S1133FE019E10F2EF0ED4F2EF6E05F2EF02D0F2E7F
S1133FF0F7EE8F2EF6E09F2EF02D0F2EF1E06F2EB0
S1134000F7E07F2EF02D3E2C2F2CFF92EF92BF92E3
S1134010AF921F930F930E94DA2A60E070E0C80108
S113402011DD6ADD0F900F900F900F900F900F909D
S1134030811163C032E03E15E8F4F60183818F9369
S113404082818F9381818F9380818F93FF92EF92EE
S11340505F924F921F930F930E94DA2A60E070E000
S1134060C801F0DC49DD0FB6F894DEBF0FBECDBF4A
S1134070811143C02F923F929F928F921F930F936F
S11340800E94DA2A60E070E0C801DCDC35DD0F90C4
S11340900F900F900F900F900F9081112EC02F92C0
S11340A03F927F926F921F930F930E94DA2A60E0EF
S11340B070E0C801C7DC20DD0F900F900F900F90C7
S11340C00F900F90811119C03FEFE31AF30A84E0B7
S11340D0C80ED11C98E0E916F10409F094CF60E011
S11340E070E089E197E0AEDC07DD811106C060E095
S11340F070E08AE297E0A6DCFFDCA0960FB6F894A5
S1134100DEBF0FBECDBFDF91CF911F910F91FF9006
S1134110EF90DF90CF90BF90AF909F908F907F9063
S11341206F905F904F903F902F900895EF92FF9281
S11341300F931F93CF93DF93EC018B017A0181E0FE
S11341400CDF81110DC0CE01ECDD811109C0C80165
S1134150F9DD811105C0C701D3DD811101C003DE82
S1134160DF91CF911F910F91FF90EF900895DC01A3
S1134170009729F1FB012081FC0101900020E9F75F
S11341803197E81BF90B822F90E0E817F907C8F084
S113419080E008C0880F382F330F330F830F80530C
S11341A0890F2F5FFD01E20FF11D908130ED390F72
S11341B03A3010F49111EECFFB012083089580E092
S11341C0089580E008950F931F93CF93DF93DC014C
S11341D0EA012097E1F1FA0101900020E9F7319713
S11341E0E41BF50B329710F532C08D01040F151F37
S11341F030E0AE01420F531FFA019081913428F050
S11342009753592F5295507F03C0592F5295507F81
S11342102C0F3D1FF9019181913410F0975301C087
S11342209053950FF80190838F5F01C080E0282F91
S1134230220F482F50E0FE0101900020E9F731974A
S1134240EC1BFD0B4E175F0710F48613CECFDF91E6
S1134250CF911F910F910895FC0180810895FC0175
S1134260208181E090E002C0880F991F6A95E2F7EF
S113427082230895FC01808186230895FC016083D4
S11342800895FC0110820895FC01408121E030E092
S113429002C0220F331F6A95E2F7242B208308956E
S11342A0FC012081622B60830895FC01408121E0A0
S11342B030E002C0220F331F6A95E2F724272083DF
S11342C00895FC012081622760830895FC01908198
S11342D021E030E002C0220F331F6A95E2F72095F7
S11342E0292320830895FC019081609569236083CC
S11342F00895CF93DF93CDB7DEB729970FB6F8941F
S1134300DEBF0FBECDBF89E0E1E4F2E09E012F5F86
S11343103F4FD90101900D928A95E1F71092BC1993
S11343201092BB198091BD199091BE19009731F07C
S1134330422F532F69E00ED180E001C082E029961C
S11343400FB6F894DEBF0FBECDBFDF91CF910895B5
S11343502091BB193091BC192115310529F4FC01B8
S11343601182108281E00895FC013183208380E072
S1134370089565360CF064E66C390CF46CE996EF3C
S11343806902B00111246854744F811105C07093FF
S1134390290160932801089570932B0160932A01E9
S11343A00895EAE0F1E08081886180838FE39CE9ED
S11343B0909327018093260160E080E0DADF60E0DB
S11343C081E0D7DFE0E2F1E08081826A8083E1E28C
S11343D0F1E080818A61808308952F923F924F9209
S11343E05F926F927F928F929F92AF92CF92EF9251
S11343F0FF920F931F93CF93DF93CDB7DEB7F82EC1
S11344002A013B0188E090E00ED78C018F2D90E0CB
S1134410880F991FFC01E154F64E11830083FC01BF
S1134420E65FFD4F80819181D8018D939C936C2D23
S113443070E084E090E0DDD61C0161E070E086E08D
S113444090E0D7D67C014C2DB1012DD5F801F58231
S1134450E4826A2D70E084E090E0CBD61C0161E038
S113446070E086E090E0C5D67C014A2DB1011BD5F1
S1134470D8011396FC92EE92129717969C928E9204
S11344801697FFB6F894ED91FC91119736978081B9
S1134490826080838D909C90C301B2010E943F1A78
S11344A020E030E040E051E414D69B01AC0160E030
S11344B074E284E79BE47AD520E030E040E85FE3EF
S11344C00ED50E94131AF40132976083D801ED913E
S11344D0FC911197359788E98083ED91FC9134978D
S11344E086E08083FFBEC801DF91CF911F910F91B9
S11344F0FF90EF90CF90AF909F908F907F906F90B0
S11345005F904F903F902F900895CF93DF93EC01ED
S1134510EA81FB81938182812581981B9223848186
S11345209817A1F0938126952923A081B181A20F28
S1134530B11D6C939F5F258192239383E881F98158
S1134540359780818062808380E001C082E0DF91C2
S1134550CF910895EF92FF920F931F93CF93DF9320
S11345607C01DC011296ED91FC9113979381828179
S1134570981B858198238481891B861798F166236B
S113458041F1842F952FDC016150462F50E04F5F9D
S11345905F4F480F591FE701EA81FB8193818281B4
S11345A02581981B92238481981779F08C919381AB
S11345B026952923608171818B01020F111DE80169
S11345C088839F5F8581982393831196A417B507E9
S11345D011F7D701ED91FC9135978081806280833A
S11345E080E001C082E0DF91CF911F910F91FF9095
S11345F0EF900895DC011496ED91FC911597938149
S11346008281981789F09281858186958923A0817A
S1134610B181A80FB11D8C91DB018C939F5F8581C3
S11346209823928380E0089583E008951F920F9267
S11346300FB60F9211240BB60F922F933F934F9303
S11346405F936F937F938F939F93AF93BF93CF9316
S1134650DF93EF93FF93A091BF19B091C019109706
S113466011F16091C6001496ED91FC911597938118
S113467082812581981B92238481981761F083811C
S113468026952823C081D181C20FD11D68838F5FF5
S11346909581892383831696ED91FC911797309722
S11346A011F0CD011995FF91EF91DF91CF91BF9159
S11346B0AF919F918F917F916F915F914F913F91B6
S11346C02F910F900BBE0F900FBE0F901F90189557
S11346D01F920F920FB60F9211240BB60F922F93C5
S11346E08F939F93AF93BF93EF93FF93E091BF1981
S11346F0F091C0193097B9F00280F381E02D9381D5
S113470082819817B1F092818581282F26952923DB
S1134710A081B181A20FB11D2C919F5F8923828357
S11347202093C6000BC0E1ECF0E080818F7D808394
S113473005C0E1ECF0E080818F7D8083FF91EF91F3
S1134740BF91AF919F918F912F910F900BBE0F90BE
S11347500FBE0F901F9018951F920F920FB60F92D5
S113476011240BB60F922F933F934F935F936F9344
S11347707F938F939F93AF93BF93CF93DF93EF93E5
S1134780FF93A091C119B091C219109711F16091D2
S1134790CE001496ED91FC91159793818281258129
S11347A0981B92238481981761F08381269528238E
S11347B0C081D181C20FD11D68838F5F9581892308
S11347C083831696ED91FC911797309711F0CD01E4
S11347D01995FF91EF91DF91CF91BF91AF919F9187
S11347E08F917F916F915F914F913F912F910F9096
S11347F00BBE0F900FBE0F901F9018951F920F9233
S11348000FB60F9211240BB60F922F938F939F9391
S1134810AF93BF93EF93FF93E091C119F091C21945
S11348203097B9F00280F381E02D9381828198174B
S1134830B1F092818581282F26952923A081B18109
S1134840A20FB11D2C919F5F892382832093CE00F8
S11348500BC0E9ECF0E080818F7D808305C0E9EC3A
S1134860F0E080818F7D8083FF91EF91BF91AF91C4
S11348709F918F912F910F900BBE0F900FBE0F90B1
S11348801F9018951F920F920FB60F9211240BB61A
S11348900F922F933F934F935F936F937F938F93D5
S11348A09F93AF93BF93CF93DF93EF93FF93A09125
S11348B0C319B091C419109711F16091D6001496E0
S11348C0ED91FC911597938182812581981B922308
S11348D08481981761F0838126952823C081D18132
S11348E0C20FD11D68838F5F9581892383831696B8
S11348F0ED91FC911797309711F0CD011995FF9127
S1134900EF91DF91CF91BF91AF919F918F917F9163
S11349106F915F914F913F912F910F900BBE0F902C
S11349200FBE0F901F9018951F920F920FB60F9203
S113493011240BB60F922F938F939F93AF93BF9332
S1134940EF93FF93E091C319F091C4193097B9F034
S11349500280F381E02D938182819817B1F09281D6
S11349608581282F26952923A081B181A20FB11D0D
S11349702C919F5F892382832093D6000BC0E1EDA5
S1134980F0E080818F7D808305C0E1EDF0E08081DF
S11349908F7D8083FF91EF91BF91AF919F918F9114
S11349A02F910F900BBE0F900FBE0F901F90189574
S11349B01F920F920FB60F9211240BB60F922F93E2
S11349C03F934F935F936F937F938F939F93AF9393
S11349D0BF93CF93DF93EF93FF93A091C519B09149
S11349E0C619109711F1609136011496ED91FC915E
S11349F01597938182812581981B9223848198172E
S1134A0061F0838126952823C081D181C20FD11DF5
S1134A1068838F5F9581892383831696ED91FC913A
S1134A201797309711F0CD011995FF91EF91DF9110
S1134A30CF91BF91AF919F918F917F916F915F9132
S1134A404F913F912F910F900BBE0F900FBE0F907F
S1134A501F9018951F920F920FB60F9211240BB648
S1134A600F922F938F939F93AF93BF93EF93FF93E3
S1134A70E091C519F091C6193097B9F00280F3811D
S1134A80E02D938182819817B1F092818581282F3E
S1134A9026952923A081B181A20FB11D2C919F5F7E
S1134AA089238283209336010BC0E1E3F1E0808106
S1134AB08F7D808305C0E1E3F1E080818F7D808379
S1134AC0FF91EF91BF91AF919F918F912F910F9093
S1134AD00BBE0F900FBE0F901F901895CF93DF93CE
S1134AE01F92CDB7DEB7BE016F5F7F4F8091C719AC
S1134AF09091C8197FDD8111F6CF898190E00F90E4
S1134B00DF91CF910895682F8091C7199091C819AA
S1134B10FCDC80E090E008958F929F92AF92CF9258
S1134B20EF920F93812C912C6894AA24A7F868948F
S1134B30CC24C7F8E12C00E023E040E051EE60E033
S1134B4070E04BDC9093C8198093C719E5E0FAE153
S1134B5082E192E091838083938382830F91EF902B
S1134B60CF90AF909F908F9008958091D719811125
S1134B700CC08CE08093B8008FEF8093BB0084E07E
S1134B808093BC0081E08093D7190895AF92BF92BF
S1134B90CF92DF92EF92FF920F931F93CF93DF9305
S1134BA0A82EB62E69017A0184E090E03CD3EC0192
S1134BB0892B61F1A88281E0B81212C0C701B60145
S1134BC020EA36E841E050E0EAD2DA01C901409730
S1134BD0A109B109B695A79597958795898311C0C1
S1134BE0C701B60120E83AE146E050E0D8D2DA0144
S1134BF0C9014097A109B109B695A79597958795DD
S1134C0089831B830A838C2F9D2F02C080E090E050
S1134C10DF91CF911F910F91FF90EF90DF90CF9094
S1134C20BF90AF9008958091BC0081700895FF9269
S1134C300F931F93CF93DF930097D1F14A30D0F5B0
S1134C40F42E8B01EC01EFDF811136C08091CA197B
S1134C509091CB19C817D90741F087DF89818093D8
S1134C60B800D093CB19C093CA1981E08F0D8093FB
S1134C70CC198881880F8093CD19FF2089F0F80121
S1134C80AEECB9E14FEF4F0D642F70E0CB0101960C
S1134C90B801680F791F81918D93E617F707D9F74B
S1134CA088EF8093200285EA8093BC0084E005C0ED
S1134CB086E003C087E001C082E0DF91CF911F91BD
S1134CC00F91FF9008951F93CF93DF93009729F1DD
S1134CD06B3028F5162FEC01A6DF811122C08091DC
S1134CE0CA199091CB19C817D90741F03EDF8981C1
S1134CF08093B800D093CB19C093CA191093CC19E0
S1134D008881880F81608093CD1988EF8093200279
S1134D1085EA8093BC0085E005C086E003C087E097
S1134D2001C082E0DF91CF911F9108951F920F92ED
S1134D300FB60F9211240BB60F922F933F934F93FC
S1134D405F936F937F938F939F93AF93BF93EF93EF
S1134D50FF93E091B9008E2F90E0FC013897E13584
S1134D60F10508F075C08827E458FF4F8F4F39C20A
S1134D701092C919E091C9198091CC19E81770F4FF
S1134D8081E08E0F8093C919F0E0E353F64E8081E1
S1134D908093BB0085E88093BC0072C084E9809353
S1134DA0BC008091CA199091CB19DC011296ED9147
S1134DB0FC911397309709F463C020E040E050E081
S1134DC064E019955DC0E091C91981E08E0F80936C
S1134DD0C9198091BB00F0E0E353F64E80838091C3
S1134DE0B900803411F41092C9192091C91930E026
S1134DF08091CC1990E001972817390724F485ECA9
S1134E008093BC003DC085E88093BC0039C080918C
S1134E10BB00E091C919F0E0E353F64E808384E9C6
S1134E208093BC008091CA199091CB19DC01129631
S1134E30ED91FC911397309719F12091CC194DEC19
S1134E4059E165E019951CC085EA8093BC0018C03F
S1134E508091B9008093200284E08093BC0080910B
S1134E60CA199091CB19DC011296ED91FC9113971C
S1134E70309731F020E040E050E060912002199535
S1134E80FF91EF91BF91AF919F918F917F916F911E
S1134E905F914F913F912F910F900BBE0F900FBEDA
S1134EA00F901F901895FC01411101C0DDD2842F91
S1134EB090E09C012150310982239323892B09F02E
S1134EC0D3D2413808F0D0D2128213824483440FE3
S1134ED0415045837183608380E090E00895505889
S1134EE0BB27AA270ED0E4C0D5D030F0DAD020F00A
S1134EF031F49F3F11F41EF4CAC00EF4E095E7FBB1
S1134F00C0C0E92F0E947C1A78F3BA1762077307AE
S1134F108407950720F079F4A6F50C949E1A0EF4F4
S1134F20E0950B2EBA2FA02D0B01B90190010C01B5
S1134F30CA01A0011124FF27591B99F0593F50F4CD
S1134F40503E68F11A16F040A22F232F342F442725
S1134F50585FF3CF469537952795A795F04053951D
S1134F60C9F77EF41F16BA0B620B730B840BBAF0ED
S1134F709150A1F0FF0FBB1F661F771F881FC2F758
S1134F800EC0BA0F621F731F841F48F4879577956C
S1134F906795B795F7959E3F08F0B1CF9395880F25
S1134FA008F09927EE0F9795879508950DD080C046
S1134FB078D048F06FD038F021F45F3F21F061C021
S1134FC051110C949F1A63C00E947C1A88F3992390
S1134FD0B9F35523A1F3951B550BBB27AA276217D9
S1134FE07307840738F09F5F5F4F220F331F441FFE
S1134FF0AA1FA9F334D00E2E3AF0E0E831D0915034
S11350005040E695001CCAF72AD0FE2F28D0660F20
S1135010771F881FBB1F261737074807AB07B0E861
S113502009F0BB0B802DBF01FF2793585F4F32F06F
S11350309E3F510570F025C00C949F1A5F3FE4F326
S1135040983ED4F3869577956795B795F7959F5FC6
S1135050C9F7880F911D9695879597F90895E1E012
S1135060660F771F881FBB1F621773078407BA0771
S113507020F0621B730B840BBA0BEE1F88F7E095CC
S1135080089597F99F6780E870E060E008959FEFC6
S113509080EC089500240A941616170618060906CB
S11350A0089500240A94121613061406050608959A
S11350B0092E0394000C11F4882352F0BB0F40F422
S11350C0BF2B11F460FF04C06F5F7F4F8F4F9F4F62
S11350D008950CD0EDCFDEDF28F0E3DF18F0952340
S11350E009F0CFCFD4CF11240C949F1A0E947C1ABC
S11350F090F3959FC1F3950F50E0551F629FF00107
S1135100729FBB27F00DB11D639FAA27F00DB11D3F
S1135110AA1F649F6627B00DA11D661F829F2227C8
S1135120B00DA11D621F739FB00DA11D621F839F4F
S1135130A00D611D221F749F3327A00D611D231F25
S1135140849F600D211D822F762F6A2F11249F5773
S1135150504092F0E9F088234AF0EE0FFF1FBB1F86
S1135160661F771F881F91505040A9F79E3F510535
S113517078F087CF0C949F1A5F3FE4F3983ED4F302
S1135180869577956795B795F795E7959F5FC1F7EE
S1135190FE2B880F911D9695879597F90895A1E2A6
S11351A01A2EAA1BBB1BFD010DC0AA1FBB1FEE1F9D
S11351B0FF1FA217B307E407F50720F0A21BB30BE8
S11351C0E40BF50B661F771F881F991F1A9469F764
S11351D060957095809590959B01AC01BD01CF01C0
S11351E00895EE0FFF1F881F8BBF0790F691E02DE7
S11351F019940F931F93CF93DF93869F8001879F0A
S1135200100D969F100D1124C8010DD0EC010097CC
S113521021F0A80160E070E034D1CE01DF91CF919C
S11352201F910F9108950F931F93CF93DF938230B3
S1135230910510F482E090E0E091031AF091041AD1
S113524020E030E0A0E0B0E0309719F140815181D6
S11352500281138148175907C8F08417950769F428
S1135260109731F012960C93129713961C9327C043
S11352700093031A1093041A22C02115310519F062
S11352804217530718F49A01BD01EF01DF01F80139
S1135290DBCF21153105F9F0281B390B24303105FA
S11352A080F48A819B816115710521F0FB01938350
S11352B0828304C09093041A8093031AFE013296E9
S11352C044C0FE01E20FF31F8193919322503109F0
S11352D0398328833AC02091011A3091021A232B72
S11352E041F420910202309103023093021A209378
S11352F0011A20910002309101022115310541F477
S11353002DB73EB74091040250910502241B350B82
S1135310E091011AF091021AE217F307A0F42E1B90
S11353203F0B2817390778F0AC014E5F5F4F241705
S1135330350748F04E0F5F1F5093021A4093011A2D
S11353408193919302C0E0E0F0E0CF01DF91CF912F
S11353501F910F910895CF93DF93009709F481C0B3
S1135360FC01329713821282A091031AB091041A9D
S1135370109781F420813181820F931F2091011AAB
S11353803091021A2817390751F5F093021AE09365
S1135390011A67C0ED0120E030E0CE17DF0740F4CA
S11353A04A815B819E0141155105F1F0EA01F5CF77
S11353B0D383C28340815181840F951FC817D907B5
S11353C059F488819981840F951F02969183808373
S11353D08A819B81938382832115310529F4F0937B
S11353E0041AE093031A3DC0E901FB83EA8349915F
S11353F05991C40FD51FEC17FD0761F48081918189
S1135400840F951F0296E901998388838281938191
S11354109B838A83E0E0F0E012968D919C91139730
S1135420009719F0FD01DC01F7CF8D919C91119744
S11354309D012E5F3F4F820F931F2091011A3091DF
S1135440021A2817390769F4309729F41092041ABC
S11354501092031A02C013821282B093021AA0930C
S1135460011ADF91CF91089581E090E0F8947DC313
S1135470FB01DC0102C001900D9241505040D8F76D
S11354800895DC0101C06D9341505040E0F7089548
S1135490FB0151915523B1F0BF01DC01052E4D9163
S11354A0442369F010D0D9F7CD010190002049F0D0
S11354B04D91411108D0C9F3FB014111EECF81E0B8
S11354C090E001970895402539F0403229F44029AD
S11354D04B57465E08F018940895FB01DC010D90CB
S11354E00020E9F7119701900D920020E1F708954B
S11354F0FB01DC0101900D920020E1F70895FB010E
S1135500DC014150504088F08D9181341CF08B3582
S11355100CF4805E619161341CF06B350CF4605EB8
S1135520861B611171F3990B0895881BFCCFCF93EF
S1135530DF93CDB7DEB7AE014A5F5F4FFA016191E9
S11355407191AF018091071A9091081A61D0DF918F
S1135550CF9108950F931F93CF93DF93E091071A90
S1135560F091081A238121FF1BC08C01D0E0C0E018
S1135570F80181918F016091071A7091081ADB017B
S11355801896ED91FC911997882331F01995892B80
S113559079F3DFEFCFEFECCF8AE01995892B19F07F
S11355A08FEF9FEF02C08D2F9C2FDF91CF911F9122
S11355B00F9108950F931F93CF93DF93CDB7DEB769
S11355C02E970FB6F894DEBF0FBECDBF0E891F898C
S11355D086E08C831A8309838FEF9FE79E838D83F4
S11355E0AE01465E5F4F688D798DCE01019610D075
S11355F0EF81F885E00FF11F10822E960FB6F89414
S1135600DEBF0FBECDBFDF91CF911F910F910895E3
S11356102F923F924F925F926F927F928F929F92BE
S1135620AF92BF92CF92DF92EF92FF920F931F93AC
S1135630CF93DF93CDB7DEB72B970FB6F894DEBFC9
S11356400FBECDBF6C017B018A01FC01178216825B
S1135650838181FFBFC1CE0101963C01F601938194
S1135660F70193FD859193FF81917F01882309F4CC
S1135670ADC1853239F493FD859193FF81917F010A
S1135680853221F4B60190E0D6D1E8CF912C212CBB
S1135690312CFFE1F315D8F08B3279F038F48032F5
S11356A079F08332A1F4232D20611DC08D3261F085
S11356B0803369F4232D216016C0832D8260382E37
S11356C0E32DE4603E2E2AC0F32DF8601DC037FCA4
S11356D02DC020ED280F2A3040F08E32B9F436FC6C
S11356E075C1232D2064322E19C036FE06C08AE00F
S11356F0989E200D1124922E11C0EAE02E9E200DBA
S11357001124222EF32DF0623F2E08C08C3621F492
S1135710832D8068382E02C0883641F4F70193FD4A
S1135720859193FF81917F018111B3CF982F9F7D44
S11357309554933028F40C5F1F4F9FE399830DC059
S1135740833631F0833771F0833509F055C020C0BA
S1135750F801808189830E5F1F4F88248394912CE4
S1135760530112C02801F2E04F0E511CF801A08031
S1135770B18036FE03C0692D70E002C06FEF7FEF89
S1135780C5014ED14C018201F32DFF773F2E15C088
S1135790280122E0420E511CF801A080B18036FE9F
S11357A003C0692D70E002C06FEF7FEFC5012DD1FA
S11357B04C01F32DF0683F2E820133FC19C0822D79
S11357C090E088169906A0F4B60180E290E033D107
S11357D02A94F5CFF50137FC859137FE81915F015D
S11357E0B60190E028D121102A9421E0821A910870
S11357F08114910479F7E1C0843611F0893639F5C2
S1135800F80137FE07C060817181828193810C5F4A
S11358101F4F08C060817181072E000C880B990B03
S11358200E5F1F4FF32DFF763F2E97FF09C0909513
S11358308095709561957F4F8F4F9F4FF0683F2EF5
S11358402AE030E0A30133D1882E861844C085377E
S113585031F4232D2F7EB22E2AE030E025C0932D83
S1135860997FB92E8F36C1F018F4883579F0AEC01F
S1135870803719F0883721F0A9C0E92FE061BE2EE6
S1135880B4FE0DC0FB2DF460BF2E09C034FE0AC067
S1135890292F2660B22E06C028E030E005C020E1A2
S11358A030E002C020E132E0F801B7FE07C06081B9
S11358B07181828193810C5F1F4F06C06081718169
S11358C080E090E00E5F1F4FA301F1D0882E861870
S11358D0FB2DFF773F2E36FE0DC0232D2E7FA22EEB
S11358E0891458F434FE0BC032FC09C0832D8E7E1B
S11358F0A82E05C0B82CA32C03C0B82C01C0B92C09
S1135900A4FE0FC0FE01E80DF11D8081803321F457
S11359109A2D997EA92E09C0A2FE06C0B394B39411
S113592004C08A2D867809F0B394A3FC10C0A0FEAD
S113593006C0B21480F4280C922C9B180DC0B2142B
S113594058F4B60180E290E076D0B394F8CFB21464
S113595018F42B1802C0982C212CA4FE0FC0B601F9
S113596080E390E068D0A2FE16C0A1FC03C088E7E3
S113597090E002C088E590E0B6010CC08A2D8678DC
S113598051F0A1FE02C08BE201C080E2A7FC8DE2CF
S1135990B60190E050D0891430F4B60180E390E071
S11359A04AD09A94F8CF8A94F301E80DF11D8081CE
S11359B0B60190E040D08110F6CF222009F44ECEFB
S11359C0B60180E290E037D02A94F7CFF6018681C1
S11359D0978102C08FEF9FEF2B960FB6F894DEBF2E
S11359E00FBECDBFDF91CF911F910F91FF90EF902C
S11359F0DF90CF90BF90AF909F908F907F906F90EB
S1135A005F904F903F902F900895FC010590615056
S1135A1070400110D8F7809590958E0F9F1F0895C0
S1135A20FC016150704001900110D8F78095909569
S1135A308E0F9F1F08950F931F93CF93DF93FB0146
S1135A40238121FD03C08FEF9FEF2CC022FF16C0DE
S1135A5046815781248135814217530744F4A0813C
S1135A60B1819D012F5F3F4F318320838C93268129
S1135A7037812F5F3F4F3783268314C08B01EC019E
S1135A80FB010084F185E02D1995892BE1F6D801FD
S1135A9016968D919C911797019617969C938E93C9
S1135AA01697CE01DF91CF911F910F910895FA01BE
S1135AB0AA27283051F1203181F1E8946F936E7F49
S1135AC06E5F7F4F8F4F9F4FAF4FB1E03ED0B4E03A
S1135AD03CD0670F781F891F9A1FA11D680F791F7B
S1135AE08A1F911DA11D6A0F711D811D911DA11D8C
S1135AF020D009F468943F912AE0269F112430199C
S1135B00305D3193DEF6CF010895462F4770405D36
S1135B104193B3E00FD0C9F7F6CF462F4F70405DE5
S1135B204A3318F0495D31FD4052419302D0A9F740
S1135B30EACFB4E0A6959795879577956795BA953A
S1135B40C9F700976105710508959B01AC010A2E00
S1135B5006945795479537952795BA95C9F7620FD7
S1115B60731F841F951FA01D0895F894FFCF96
S1135B6E00000B1A200000400040C600CE00D600F4
S1135B7E3601000000030000000083256E2500009E
S1135B8EF8A027BE33E034C1332042C43360E5AEFF
S1135B9E33A0F2B133E0FFB433200DB833601ABB37
S1135BAE33FF0186000000000079FF0179A0000098
S1135BBE0000E6FF0179000000000086FF01870067
S1135BCE0000000078FF01880000000000006661FC
S1135BDE63746F7279207265736574206661696C83
S1135BEE656400657536383620636F6E6669677551
S1135BFE726174696F6E206661696C6564006765B5
S1135C0E7474696E67206877657569206661696C5E
S1135C1E65640037453338383638323044384132CB
S1135C2E31413139333330414443334432303238E5
S1135C3E33343400434543313941343531463830F9
S1135C4E323539430073657474696E67206964650F
S1135C5E6E74697479206661696C6564007361762B
S1135C6E696E6720636F6E666967206661696C652D
S1135C7E64006D616E6167656420746F206A6F697C
S1135C8E6E20746865206E6574776F726B00736531
S1135C9E6E74207375636365737366756C6C792C9F
S1135CAE206E6F20646F776E206C696E6B00736567
S1135CBE6E74207375636365737366756C6C792C7F
S1135CCE207769746820646F776E206C696E6B0040
S1135CDE636F756C646E27742073656E64207468CC
